:020000040800F2
:1000000060080020F91D0008091200080B12000802
:100010000F12000813120008171200080000000059
:100020000000000000000000000000001B1200089B
:100030001D120008000000001F1200082112000815
:10004000131E0008131E0008131E0008131E0008CC
:10005000131E0008131E0008131E0008131E0008BC
:10006000131E0008131E0008131E0008131E0008AC
:10007000131E0008131E0008131E0008131E00089C
:10008000131E0008131E0008131E0008131E00088C
:10009000131E0008131E0008131E0008131E00087C
:1000A000131E000801110008131E0008131E00088B
:1000B000131E0008131E0008131E0008131E00085C
:1000C000131E0008131E0008131E0008131E00084C
:1000D000131E00089118000875190008131E000867
:1000E000131E0008131E0008131E000800F002F87B
:1000F00000F05AF80AA090E8000C82448344AAF168
:100100000107DA4501D100F04FF8AFF2090EBAE865
:100110000F0013F0010F18BFFB1A43F0010318473B
:10012000785C0000985C00000A444FF0000C10F866
:10013000013B13F0070408BF10F8014B1D1108BF65
:1001400010F8015B641E05D010F8016B641E01F805
:10015000016BF9D113F0080F1EBF10F8014BAD1C55
:100160000C1B09D16D1E58BF01F801CBFAD505E073
:1001700014F8016B01F8016B6D1EF9D59142D6D3CD
:10018000704700000023002400250026103A28BFF5
:1001900078C1FBD8520728BF30C148BF0B607047F9
:1001A0001FB51FBD10B510BD03F05EFB1146FFF774
:1001B000F7FF00F0CCFD03F07CFB03B4FFF7F2FF88
:1001C00003BC01F007FB00002DE9F04104460D4699
:1001D000002213462046294605F052FA0AD2002290
:1001E000FE4B2046294604F075FE064604F0A2F8B0
:1001F000BDE8F0810022F94B2046294605F068FB56
:10020000064603F0DBFFF3E72DE9F04104460D4617
:10021000F34AF44B2046294605F034F906460022FD
:10022000F14B04F013FFBDE8F0812DE9F04F99B0D8
:1002300006460F4692469B4630463946FFF7E4FF96
:1002400080468946DDE92201FFF7DEFFCDE9160190
:1002500040464946DDE9162305F03AFBCDE9140195
:10026000DDE92401FFF7D0FFCDE9100150465946E2
:10027000FFF7CAFFCDE90E01DDE9102305F028FBE9
:10028000CDE9120100224FF08043DDE9120104F0B4
:10029000DDFECDE9000104F0A7FD00224FF0804310
:1002A000CDE9020104F0B4F8CDE90601DDE916015B
:1002B00003F0F2FFCDE902014046494603F0ECFFAE
:1002C000CDE90001DDE9022305F0DCF8CDE9040108
:1002D000DDE9062305F0D6F800224FF08043CDE992
:1002E0000A01DDE9140104F0B1FECDE9040104F0D6
:1002F0007BFD00224FF08043CDE9060104F088F831
:10030000CDE90801DDE90A2304F0E4FDCDE90C01A3
:1003100004F0BAFDCDE90E0103F018FE00224FF003
:100320008043CDE9100105F0ADF804460D46AF4A13
:10033000AF4B2046294605F0A5F804460D4600229D
:10034000AC4B2046294605F09DF8CDE90E01FFF79C
:100350003BFF0022A74BCDE9100104F077FE0446D5
:100360000D462046294619B0BDE8F08F42F21071C3
:1003700090FBF1F1A04A117042F2107190FBF1F282
:1003800001FB12014FF47A7291FBF2F19B4A11705A
:100390004FF47A7190FBF1F201FB1201642291FBA0
:1003A000F2F1974A1170642190FBF1F201FB120106
:1003B0000A2291FBF2F1934A11700A2190FBF1F2AB
:1003C00001FB1201904A1170704710B58F480078F8
:1003D00048B300208D490870012001F004F9142071
:1003E00001F0C5F9802001F0FEF88949834A1278AE
:1003F000885C01F044F98649814A1278885C01F0F2
:100400003EF983497F4A1278885C01F038F98049C7
:100410007D4A1278885C01F032F94FF47A7001F06D
:10042000A6F9002010BD7B4A0021084601F045F9DD
:10043000794A0121002001F040F90120F2E710B5CE
:100440007648007801281ED10020744908700120E8
:100450007349087073480068401C7249086072480C
:10046000007888B90846006804280DD30B226FA1D4
:10047000714801F093FC00206A4908606A480078DE
:10048000401C69490870C4E167480078012823D1FD
:100490006448006804281FD300206849087009E0F8
:1004A00030206749654A1278885464480078401CB7
:1004B00062490870614800786E28F1DB0B2261A167
:1004C0005D4801F06BFC00205649086056480078F2
:1004D000401C554908709CE15348007802287BD1A4
:1004E00050480068042877D30020594908705349C0
:1004F0000870D3E0524851490978405C472810D130
:100500004F494E480078401C085C452809D14B48AB
:100510000078801C085C542803D101204C490870E5
:10052000C1E0474845490978405C2B2855D14449EA
:1005300042480078401C085C38284ED13F4800787B
:10054000801C085C362848D10920414908703C4984
:100550003A480078085C3F49487239493748007882
:10056000401C085C3B498872354934480078801C3F
:10057000085C3849C872324930480078C01C085CB1
:10058000344908732E492D480078001D085C314914
:1005900048732B4929480078401D085C2D49887311
:1005A000274926480078801D085C2A49C8732449D9
:1005B00022480078C01D085C2649087420491F485D
:1005C00000780830085C234948741D491B480078AE
:1005D0000930085C1F493FE0FCE05AE00000E03FC2
:1005E0004AD8124DFB210940008066408D976E125B
:1005F00023EAB8400088C340A6000020A7000020DE
:10060000A8000020A9000020AA0000200C00002063
:1006100099000020580000206800002017010020E9
:10062000CC000020AC000020AB00002041542B4344
:100630004D47463D310D0A00003801400B000020B7
:100640009201002041542B434D47523D310D0A0089
:10065000CA000020B00000208874FE49FE480078DF
:100660000A30085CFD49C874FA49FB4800780B3031
:10067000085CFA490875F749F74800780C30085CBF
:10068000F6494875F349F44800780D30085CF349A1
:100690008875F1480078401CEF490870EE480078F2
:1006A0006B28FFF627AF00BF2220EC49C8750D204C
:1006B00008760A204876EA480078002874D0142288
:1006C000E8A1EE4801F06AFB0020E349087007E06A
:1006D000642001F04CF8E0480078401CDE490870C6
:1006E000DD4800780528F3DB0B22AFF2C001E348B8
:1006F00001F054FB0020D849087007E0642001F0A5
:1007000036F8D5480078401CD3490870D2480078A4
:100710000328F3DB0F22DAA1D84801F03FFB0020C9
:10072000CD49087007E0642001F021F8CA4800783C
:10073000401CC9490870C84800780328F3DB1A2216
:10074000C649CE4801F02AFB0020C349087007E0E3
:10075000642001F00CF8C0480078401CBE490870C5
:10076000BD4800780228F3DBBD48007801280AD193
:100770000C22C749C14801F011FB0C22C549BF48F2
:1007800001F00CFB04E00722C3A1BC4801F006FB0A
:10079000642000F0ECFF0122C149B84801F0FEFAE4
:1007A0000020AD49087008E00BE0642000F0DFFF96
:1007B000A9480078401CA8490870A7480078142868
:1007C000F3DB0020B7490860B7480078401CB64901
:1007D00008701EE0B448007803281AD1B1480068B8
:1007E000042816D3B1480078401CB0490870084668
:1007F00000780A2806DD00200870142299A19F487D
:1008000001F0CCFA0020A7490860A7490870A84960
:10081000087010BD2DE9F041A64800783038A6498F
:100820004143A4484078303843F60952504301EB25
:100830008010A24908609F48807830389E49414323
:100840009C48C0783038504301EB801199480079BA
:10085000303840F63542504301EB4011954840791D
:10086000303840F27122504301EB001191488079F9
:10087000303800EB4002C2EBC01001EBC0018D48E4
:10088000C079303800EBC00202EB001001EB8000B1
:100890008B490860084600683C21B0FBF1F08849AC
:1008A0000860864800680968084486490860084668
:1008B000006804F097FD074688464E20744908708A
:1008C0003A204870302088707E4800687A49B0FB32
:1008D000F1F030306E49C8707A4800687A49B0FB50
:1008E000F1F00A21B0FBF1F201FB1200303068494F
:1008F00008712E204871734800687449B0FBF1F00C
:100900000A21B0FBF1F201FB12003030604988711E
:100910006C48006842F21071B0FBF1F00A21B0FBA4
:10092000F1F201FB120030305949C8716548006886
:100930004FF47A71B0FBF1F00A21B0FBF1F201FB48
:1009400012003030524908725E4800686421B0FBE2
:10095000F1F00A21B0FBF1F201FB120030304C49FA
:100960004872584800680A21B0FBF1F0B0FBF1F280
:1009700001FB1200303046498872524800680A2153
:10098000B0FBF1F201FB120030304149C872494816
:10099000007A30384E4941434648407A30384D4A13
:1009A000504301EBC0114348807A303843F6095276
:1009B000504301EB8010414908603E48C07A30380E
:1009C0003D4941433B48007B3038504301EB8011A7
:1009D0003848407B303840F63542504301EB4011F7
:1009E0003448807B303840F27122504301EB0011D3
:1009F0003048C07B303800EB4002C2EBC01001EB46
:100A0000C0012C48007C303800EBC00202EB001023
:100A100001EB80002A490860084600683C21B0FBD1
:100A2000F1F027490860254800680968084425490D
:100A300008600846006804F0D5FC05460E464520CF
:100A4000144908703A2048701E4800682049B0FBDD
:100A5000F1F041E0920100200B000020B0000020E6
:100A6000CA00002041542B434D4744413D22444598
:100A70004C20414C4C220D0A00000000003801407F
:100A800041542B435343533D2247534D220D0A00FB
:100A90005800002068000020434D445F455252003A
:100AA00098000020AC000020AB000020CB0000200C
:100AB000CC0000202C010020809698001C00002013
:100AC000200000202400002040420F00A0860100EA
:100AD00000E1F5052D3101003030FE498870FE48F7
:100AE0000068FE49B0FBF1F00A21B0FBF1F201FB16
:100AF00012003030F749C870F7480068F849B0FB79
:100B0000F1F00A21B0FBF1F201FB12003030F149A3
:100B100008712E204871F0480068F249B0FBF1F0EE
:100B20000A21B0FBF1F201FB12003030E949887173
:100B3000E948006842F21071B0FBF1F00A21B0FB05
:100B4000F1F201FB12003030E249C871E24800685E
:100B50004FF47A71B0FBF1F00A21B0FBF1F201FB26
:100B600012003030DB490872DB4800686421B0FBBA
:100B7000F1F00A21B0FBF1F201FB12003030D5494F
:100B80004872D54800680A21B0FBF1F0B0FBF1F2E1
:100B900001FB12003030CF498872CF4800680A212B
:100BA000B0FBF1F201FB12003030CA49C8720024D8
:100BB00009E0CD48005DCD490855C648005DCC49E7
:100BC0000855601CC4B2102CF3DBBDE8F08110B5F1
:100BD000C848006880B9032000F0C9FDC548006816
:100BE000002808D1C448C5490CC803C9FFF712FE44
:100BF0000120C3490870A9E0BE48001D006878BB09
:100C0000032000F0B4FDBB48001D00680028F2D1AD
:100C10000022BC4BBC4903C904F032FD0FD20022B4
:100C2000BA4BB94903C904F0F1FB08D20022B54B15
:100C3000B54903C904F04EF9B34A03C204E00021E8
:100C4000B048B14AC2E900100120B1490870AE496C
:100C500003C904F083FB84B22046FFF787FB75E0ED
:100C6000FFE7A4480830006878BB032000F07FFD50
:100C7000A04808300068002868D10022A34BA24990
:100C800003C904F0FDFC0FD80022A24B9E4903C902
:100C900004F0BCFB08D200229C4B9B4903C904F022
:100CA00019F9994A03C204E000219848964AC2E91A
:100CB0000010012096490870934903C904F04EFBC7
:100CC00084B22046FFF752FB40E0FFE789480C3032
:100CD0000068B8B9032000F04AFD86480C3000686F
:100CE000A0BB00218B48884AC2E900100120884936
:100CF0000870114603C904F031FB84B22046FFF7A7
:100D000035FB23E08448006858B9032000F02FFD2C
:100D100081480068D0B981480078401C7F4908703C
:100D200014E07D48001D006880B9032000F01FFD1D
:100D30007948001D006848B978480078401E774916
:100D400008700846007808B90120087010BD1FB56A
:100D500000F0D0FC00F038FD00F0B8FB00F061FCC2
:100D60004FF4165000F045FD4FF4165000F0B1FD61
:100D70004FF47A71472000F045FB00F06BFB6848A8
:100D800068490CC803C9FFF745FD6648D0E9001063
:100D90005A4AC2E900106248D0E90010564AC2E936
:100DA000001005206049087002E0642000F0DFFCBC
:100DB0005D4801780078401E5B4A10700029F4D12C
:100DC0000B22AFF29871594800F0E8FF0A2056490B
:100DD000087002E0642000F0CAFC534801780078F3
:100DE000401E514A10700029F4D10F22AFF2703129
:100DF0004E4800F0D3FF0A204B49087002E06420FF
:100E000000F0B5FC484801780078401E464A107052
:100E10000029F4D173E1FFF7DAFE45480078012894
:100E2000F8D1374800780028F4D0002040490870F5
:100E30003B4803C8CDE902013A4803C8CDE90001A7
:100E40002D482E490CC803C9FFF7EFF9394A03C2F0
:100E500039480078401C384908702B4835490CC87F
:100E600003C904F00DFC6FD2344A0021084600F09B
:100E700024FC33480078401C314908702E48007823
:100E8000052861DB2F48006803285DD308460078F9
:100E9000012870DB1422AFF23441244800F07EFFB9
:100EA00000202149087007E0642000F060FC1E4823
:100EB0000078401C1C4908701B4800780528F3DBAB
:100EC0000B22AFF69801194800F068FF0020164980
:100ED000087042E0680000202400002080969800FE
:100EE00040420F00A086010058000020780000203A
:100EF0008800002010012142380000202800002036
:100F00000E000020000026405000002000C05B4082
:100F10000C00002000008940388121420D00002093
:100F200040000020300000200B000020003801406D
:100F30000F000020480000201100002000000020C9
:100F400010000020180000205DE0642000F00FFC7D
:100F50008C480078401C8B4908708A480078032828
:100F6000F3DB0F22AFF2E841874800F017FF0020C3
:100F70008449087008E03EE0642000F0F8FB8148F6
:100F80000078401C7F4908707E4800780328F3DB16
:100F90001A227EA17C4800F001FF002079490870E8
:100FA00007E0642000F0E3FB76480078401C7549B8
:100FB0000870744800780228F3DB07227AA172488F
:100FC00000F0ECFE642000F0D2FB012278496E486C
:100FD00000F0E4FE00206B49087007E0642000F098
:100FE000C6FB68480078401C664908706548007870
:100FF0001428F3DB02E000206E49086000206E49EF
:1010000008706E4908706B4800686D49097888421D
:1010100071D30B22AFF6EC115B4800F0BFFE03204A
:101020005849087002E0642000F0A1FB554801789F
:101030000078401E534A10700029F4D10F22AFF2FD
:10104000C051514800F0AAFE03204E49087002E04A
:10105000642000F08CFB4B4801780078401E494A20
:1010600010700029F4D11A2248A1474800F096FEDA
:1010700002204449087002E0642000F078FB4148F7
:1010800001780078401E3F4A10700029F4D10822F0
:101090004CA13D4800F082FE4F480078012809D15C
:1010A00000204D4908704D484D490CC803C9FFF751
:1010B000B1FB04E00E224BA1334800F06FFEC820C4
:1010C00000F055FB01223A492F4800F067FE282026
:1010D0002C49087002E0642000F049FB294801789F
:1010E0000078401E274A10700029F4D100203149B1
:1010F000086040490860FFF7A2F9FFF766F98AE641
:1011000010B501213C4802F082FBC8B301213A48E6
:1011100002F08EFB39480068401C384908600846D8
:1011200000680521B0FBF1F201FB1200F8B90120C3
:1011300033490870314800680A21B0FBF1F201FB25
:10114000120010B901202F4908702C4800681421A2
:10115000B0FBF1F201FB120048B916480068401CD0
:101160001449086023480068401C2249086023484D
:10117000006842F21071884202D900201F490860BD
:1011800010BD00000B0000200038014041542B43EB
:101190004D47534D3D222B383631353633333639B2
:1011A00031333336220D0A004C4F535400000000F7
:1011B00098000020140000201000002011000020E2
:1011C0000D000020546865206465766963652069B8
:1011D00073206F7574210000EF0000204000002094
:1011E00030000020677073206C696E6B696E672E2B
:1011F0002E2E000018000020002C0140D0000020FE
:101200000F0000200A000020704700BFFEE700BF6B
:10121000FEE700BFFEE700BFFEE77047704770477C
:10122000704700000CB50020019000906C480068E9
:1012300040F480306A49086000BF6948006800F4E3
:10124000003000900198401C0190009818B9019856
:10125000B0F5A06FF1D16248006800F4003010B121
:101260000120009001E0002000900098012843D167
:101270005C48006840F010005A4908600846006861
:1012800020F0030008600846006840F00200086093
:1012900053484068524948600846406848600846DC
:1012A000406840F4806048600846406820F47C1044
:1012B00048600846406840F4E81048600846006806
:1012C00040F08070086000BF4548006800F0007082
:1012D0000028F9D04248406820F0030040494860A7
:1012E0000846406840F00200486000BF3C48406843
:1012F00000F00C000828F9D10CBD10B5FFF792FFE3
:1013000010BD10B53648006840F00100344908604F
:10131000084640683449084031494860084600683A
:10132000324908402E4908600846006820F48020B1
:1013300008600846406820F4FE0048604FF41F0033
:101340008860FFF7DAFF4FF000602949086010BDA0
:1013500010B5002100200022214B5B6803F00C0136
:1013600021B1042906D0082928D107E0214B224CBD
:10137000236027E01F4B204C236023E0184B5B6861
:1013800003F47010164B5B6803F48032022303EB06
:10139000904022B9194B4343174C23600DE0104B8A
:1013A0005B6803F4003323B1144B4343124C2360B6
:1013B00003E0104B4343104C236003E00D4B0E4CF5
:1013C000236000BF00BF064B5B68C3F303130C4CE4
:1013D000E15C094B1B68CB40074C236010BD00004B
:1013E00000100240002002400000FFF8FFFFF6FE60
:1013F00008ED00E000127A00D400002000093D0052
:10140000D80000207FB505460C460121022001F0DE
:101410003CF8ADF80850ADF804400020ADF80A00E3
:10142000ADF8060001A9274801F0CCFB1D208DF87E
:10143000000000208DF8010003208DF8020001203B
:101440008DF80300684601F080FA01211D4801F083
:1014500015FF7FBD1FB50121C80201F009F8472023
:10146000ADF8040040F2E730ADF808000020ADF818
:101470000A00ADF806008DF80C0001A9124801F031
:10148000A1FB01221146104801F013FF01210E4873
:1014900002F0CEF94FF4C06001F052FA19208DF835
:1014A000000000208DF801008DF8020001208DF869
:1014B0000300684601F049FA0121034801F0DEFE0D
:1014C0001FBD000000040040002C014008B50121B0
:1014D000892000F0CDFF01210E4800F0DEFD012142
:1014E0000C2000F0C5FFF020ADF8000048208DF87A
:1014F00003006946084800F0FFFC4FF44040ADF897
:10150000000048208DF803006946044800F0F4FC10
:1015100008BD00000002300000080140000C01403E
:1015200000F08001802903D10821704A116003E096
:1015300008216E4A121D116000F04001402903D1BC
:1015400010216A4A116003E01021684A121D1160DF
:1015500000F02001202902D1644A116003E020211B
:10156000624A121D116000F01001102903D14021C0
:101570005E4A116003E040215C4A121D116000F0D8
:101580000801082903D18021584A116003E0802115
:10159000564A121D116000F00401042903D189018B
:1015A000524A116004E04FF48071504A121D1160DC
:1015B00000F00201022903D109024C4A116004E043
:1015C0004FF40071494A121D116000F0010121B170
:1015D0004FF48061454A116004E04FF48061434A52
:1015E000121D1160704710B504464FF400503F497A
:1015F000091D086040100860401008602046FFF791
:101600008FFF0A2000F0B3F84FF4006037490860FC
:101610000A2000F0ACF84FF400603449091D08605E
:1016200010BD08B50121082000F022FF43F6F87034
:10163000ADF8000010208DF8030003208DF80200A3
:1016400069462A48103800F057FC0121284800F06C
:1016500024FD0A2000F08BF83820FFF7C4FF382063
:10166000FFF7C1FF0820FFF7BEFF0120FFF7BBFF18
:101670000620FFF7B8FF0C20FFF7B5FF08BD10B537
:1016800004464FF40050194908604010091D0860D5
:10169000401008602046FFF743FF0A2000F067F87B
:1016A0004FF40060114908600A2000F060F84FF420
:1016B00000600E49091D086010BD70B505460E4654
:1016C00014462EB905F18001C8B2FFF78CFF04E083
:1016D00005F1C001C8B2FFF786FF03E02078FFF7ED
:1016E000CEFF641C20780028F8D170BD100C01409A
:1016F0000002300010B56FF0040001F070F92E48C0
:1017000000682E49B0FBF1F02D49087008460078BA
:1017100000EB4001C1EBC0104FF6FF7101EAC000C1
:101720002849088010BD0146254A12784A434FF0E7
:10173000E0235A6100229A611A46126942F00102BE
:101740001A6100BF4FF0E022106900F001021AB1E7
:1017500000F48032002AF5D04FF0E022126922F026
:1017600001024FF0E0231A6100229A61704701469E
:10177000144A12884A434FF0E0235A6100229A61CA
:101780001A46126942F001021A6100BF4FF0E022CE
:10179000106900F001021AB100F48032002AF5D07D
:1017A0004FF0E022126922F001024FF0E0231A61AB
:1017B00000229A6170470000D400002000127A00D5
:1017C000E8000020EA00002010B54FF4A06001F00E
:1017D000B7F810BD014600BF704700BFFE4A12882F
:1017E00002F04002002AF9D0C2B2FB4B1B1D1A8046
:1017F000704710B586B00446012144F2040000F0A1
:1018000037FEF54800F098FE4FF40070ADF8140074
:1018100003208DF8160018208DF8170005A9EF4851
:1018200000F06AFB4FF48060ADF8140004208DF8DE
:10183000170005A9E94800F05FFB25208DF800009E
:1018400003208DF801008DF8020001208DF80300BF
:10185000684601F07AF801940020ADF80800ADF870
:101860000A00ADF80C00ADF810000C20ADF80E0029
:1018700001A9D94800F0A3FE012240F22551D64823
:1018800000F035FF0121D44800F025FF06B010BD5F
:1018900010B540F22551D04801F00EF8C0B1CE4845
:1018A00000F08AFFC4B20020CD490870CD4800780E
:1018B000401CCC490870CC4809784454C948007889
:1018C0006D2805DB0020C74908700120C749087052
:1018D00010BD10B586B004460121042000F0C8FDFB
:1018E0000121480400F0D1FDC14800F025FE04208C
:1018F000ADF8140003208DF8160018208DF817009D
:1019000005A9B64800F0F8FA0820ADF81400042044
:101910008DF8170005A9B14800F0EEFA26208DF8E1
:10192000000002208DF8010003208DF80200012044
:101930008DF80300684601F008F801940020ADF826
:101940000800ADF80A00ADF80C00ADF810000C204E
:10195000ADF80E0001A9A64800F031FE012240F2C8
:101960002551A34800F0C3FE0121A14800F0B3FEB9
:1019700006B010BD10B540F225519D4800F09CFF07
:1019800000287DD09A4800F017FFC4B2994804702F
:1019900000209949087099480078012806D002284B
:1019A0001DD003284ED0042818D198E09148007823
:1019B000242813D10120904908708E4800782428EB
:1019C00006D102208D49087000208D49086005E08D
:1019D00001208A490870002089490860DCE18648B6
:1019E000007838BB01208449087082480078854916
:1019F000834A1268885482480068401C8049086005
:101A00000846006805281CD17E480078472812D176
:101A10007C48807852280ED17A48C0784D280AD167
:101A200078480079432806D10320744908700020C3
:101A30007349086005E00120704908700020704972
:101A40000860A9E16C480078002847D101206A4964
:101A500008706B480068401C6949086008460068C7
:101A600001280AD908460068082806D2614801788A
:101A700063480068801E644A11545E48007800E0A4
:101A80008BE12C280AD15E480068072806D95C48FB
:101A90000068102802D2CC205949086058480068D4
:101AA000CD281BD1002056490860022057490870F4
:101AB000002057490870574908704E48007841285F
:101AC00003D104204D49087008E0002052490870F5
:101AD00001204A4908700020494908605CE14648F5
:101AE0000078002876D101204349087044480068F6
:101AF000401C434908603F4800782C2807D14348E0
:101B00000078401C4149087000203D4908603F486A
:101B1000007803281CD13A48006850B13848006862
:101B2000052806D23348017835480068401E3B4AF4
:101B300011543348006805280AD9314800680A283A
:101B400006D22C4801782E480068801E334A115472
:101B50002E480078042806D12948006818B1254885
:101B600000782F4908702948007805281CD124489E
:101B7000006850B122480068062806D21D48017846
:101B8000264A1F480068C01D11541D4800680628D9
:101B90000AD91B4800680B2806D2164801781F4A4C
:101BA00017480068801D115418480078062806D18F
:101BB0001348006818B10F4800781A490870134894
:101BC000007807287ED11248007820B90C480068B8
:101BD00050B32AE0DFE041E0003801400008014056
:101BE000150100201601002092010020170100209D
:101BF00000440040060100200701002005010020EC
:101C0000080100203D010020F6000020EC0000202B
:101C1000ED000020EE000020EF0000202C0100204D
:101C2000F1000020F00000200BE0694800782E2829
:101C300007D06748017867480068401E664A11541B
:101C400040E0634800782E283CD162480068401E7E
:101C500060490860FF206149087033E05F48007800
:101C6000FF282FD1FE205D49087059480178594856
:101C70000068401E584A115456480068401E1146DC
:101C8000085CC87053480068801E085C8870514822
:101C90000068022805D94F480068C01E085C4870DB
:101CA00002E030204C4948704A480068032806D9B1
:101CB00048480068001F4849085C087002E030206E
:101CC0004549087046480078082843D145480078BF
:101CD000D8B94048006858B13D4800782E2807D050
:101CE0003B4801783B480068401E3F4A115431E0B0
:101CF000374800782E282DD136480068401E3549D7
:101D00000860FF203749087024E036480078FF2833
:101D100020D1FE20334908702E480068022808D1DF
:101D20002C480068801E3049085C8870302048705C
:101D300008702848006803280CD126480068801ED7
:101D40002949085C887023480068C01E085C4870F8
:101D5000302008702248007809280DD11D480068FD
:101D600050B11C480068072806D219480178194864
:101D70000068401E1D4A1154154800780D280AD1EC
:101D800001201B490870002012490860144908709E
:101D900001201849087000BF00BF10BD2DE9F041B7
:101DA00007460C46154600260DE02178384600F01F
:101DB000FFFC00BF4021384600F068FD0028F9D044
:101DC000641C701C86B2AE42EFDBBDE8F0810000FF
:101DD0000601002008010020F2000020ED00002094
:101DE000EC000020EE00002002010020FC0000209A
:101DF00005010020EF0000200948804709480047FE
:101E0000FEE7FEE7FEE7FEE7FEE7FEE7FEE7FEE7AA
:101E1000FEE7FEE704480549054A064B7047000007
:101E200003130008ED000008600200206008002095
:101E3000600400206004002010B50446CC488442B1
:101E400008D10121042000F02DFB0021042000F026
:101E500029FB46E0C748844208D10121082000F050
:101E600021FB0021082000F01DFB3AE0C24884421B
:101E700008D10121102000F015FB0021102000F0F6
:101E800011FB2EE0BD48844208D10121202000F042
:101E900009FB0021202000F005FB22E0B848844225
:101EA00008D10121402000F0FDFA0021402000F07F
:101EB000F9FA16E0B348844208D10121802000F0ED
:101EC000F1FA0021802000F0EDFA0AE0AE488442E9
:101ED00007D10121801500F0E5FA0021A01500F0DE
:101EE000E1FA10BD10B50121084600F0DBFA00212F
:101EF000012000F0D7FA10BD2DE9F041024600257F
:101F00000026002000230024002791F803C00CF0D5
:101F10000F0591F803C00CF0100CBCF1000F03D0BA
:101F200091F802C04CEA050591F800C0BCF1000F21
:101F300031D0146800202BE04FF0010C0CFA00F3B4
:101F4000B1F800C00CEA03069E4220D183004FF096
:101F50000F0C0CFA03F7BC4305FA03FC4CEA04042B
:101F600091F803C0BCF1280F06D14FF0010C0CFA18
:101F700000FCC2F814C00AE091F803C0BCF1480F9D
:101F800005D14FF0010C0CFA00FCC2F810C0401C47
:101F90000828D1D31460B1F800C0BCF1FF0F34DDC4
:101FA000546800202EE000F1080C4FF0010808FAF8
:101FB0000CF3B1F800C00CEA03069E4221D1830065
:101FC0004FF00F0C0CFA03F7BC4305FA03FC4CEA84
:101FD000040491F803C0BCF1280F05D100F1080CEE
:101FE00008FA0CF8C2F8148091F803C0BCF1480F4D
:101FF00007D100F1080C4FF0010808FA0CF8C2F8FC
:102000001080401C0828CED35460BDE8F0814FF604
:10201000FF710180022181700421C1707047024666
:10202000002093680B400BB1012000E000207047B6
:102030000146886880B2704702460020D3680B4092
:102040000BB1012000E0002070470146C86880B253
:10205000704701617047416170470AB1016100E05A
:1020600041617047C16070474FF480320A4382611A
:102070008161826182698269704702460020434B18
:1020800018684FF68073184040EA021008433F4B2F
:10209000186070473E49C8617047F0B50A46002392
:1020A00000240021002500F00046B6F1004F02D1C7
:1020B000364EF16901E0354E7168C0F3034583B2D5
:1020C00000F44016B6F5401F08D121F070612F4E84
:1020D000766826F070662D4F7E6012E000F4801660
:1020E000B6F5801F06D1032606FA05F4A14341F098
:1020F000706106E0460D360103FA06F6B14341F081
:10210000706122B1460D360103FA06F6314300F044
:102110000046B6F1004F02D11C4EF16101E01B4EAA
:102120007160F0BD30B500228B071C0F0F2303FA3E
:1021300004F2164B08338C1053F824309343134C9D
:1021400008348D1044F8253023468C1053F8243081
:102150008C07240F00FA04F423430C4C08348D1030
:1021600044F8253030BD0A49DC3108607047000072
:1021700000080140000C0140001001400014014023
:1021800000180140001C01400020014000000140F7
:1021900000002042DF48006840F00100DD4908608F
:1021A00008464068DC490840DA494860084600684B
:1021B000DA490840D74908600846006820F48020C2
:1021C00008600846406820F4FE0048604FF41F0095
:1021D00088607047CF49096821F48031CD4A116089
:1021E0001146096821F480211160B0F5803F03D0C9
:1021F000B0F5802F0ED106E0C649096841F4803160
:10220000C44A116007E0C349096841F4A021C14AEA
:10221000116000E000BF00BF704710B5014600220A
:10222000002300204A11012A02D1BA4C236806E09B
:10223000022A02D1B74C236A01E0B64C636A01F06E
:102240001F02012494401C400CB1012000E000203A
:1022500010BD38B5002000900024002500BF3120BB
:10226000FFF7DBFF05460098401C00900098B0F592
:10227000A06F01D0002DF2D03120FFF7CEFF08B1C2
:10228000012400E00024204638BD01460020A14A78
:10229000106820F0F80040EAC10010607047A049C3
:1022A00008607047024600209A4B586820F47C1062
:1022B00042EA01031843974B5860704798490866F3
:1022C000704701460020934A506820F003000843FD
:1022D000506070478F48406800F00C00704701461E
:1022E00000208C4A506820F0F0000843506070478E
:1022F00001460020874A506820F4E060084350609F
:10230000704701460020834A506820F4605040EA3C
:10231000C1005060704729B17E4A527A02437D4B1A
:102320005A7204E07B4A527A82437A4B5A7270475F
:102330007B49D8310860704701460020754A5068D3
:1023400020F440400843506070470021714A203219
:102350001170704A82F82010012802D004280AD196
:1023600004E001216B4A2032117005E00521694A21
:102370002032117000E000BF00BF7047694908605B
:1023800070476449096A0143624A116270476549AE
:1023900044390860704730B5002100220024002332
:1023A0005C4D6D6805F00C0121B1042905D00829A8
:1023B00023D105E05C4D056022E05B4D05601FE028
:1023C000544D6D6805F47012524D6D6805F48034FB
:1023D000022505EB92421CB9544D554305600BE0B4
:1023E0004C4D6D6805F400351DB1504D55430560E9
:1023F00002E04D4D5543056002E04B4D056000BFC6
:1024000000BF444D6D6805F0F0010909484D6B5C53
:102410000568DD4045603F4D6D6805F4E061090ADF
:10242000434D6B5C4568DD4085603A4D6D6805F451
:102430006051C90A3E4D6B5C4568DD40C560354D55
:102440006D6805F44041890B3A4D6B5CC568B5FB7E
:10245000F3F5056130BD29B12E4A526902432D4B77
:102460005A6104E02B4A526982432A4B5A617047F1
:1024700029B1284A92690243264B9A6104E0254A11
:1024800092698243234B9A61704729B1214AD269EC
:102490000243204BDA6104E01E4AD26982431D4B9D
:1024A000DA61704729B11B4AD2680243194BDA60DE
:1024B00004E0184AD2688243164BDA60704729B1AB
:1024C000144A12690243134B1A6104E0114A12695B
:1024D0008243104B1A6170471249403908607047B7
:1024E0000F49C86470470B49C87170470948406A72
:1024F00040F0807007494862704701460020054A55
:1025000092680A400AB1012000E0002070470149AA
:1025100088727047001002400000FFF8FFFFF6FECF
:10252000000042428004424200127A0000093D004D
:10253000180100202801002010B50446FB48844201
:1025400009D101218803FFF7ADFF00214FF480403E
:10255000FFF7A8FF32E0F648844209D10121480480
:10256000FFF7ADFF00214FF40030FFF7A8FF25E093
:10257000F048844209D101218804FFF7A0FF00211F
:102580004FF48020FFF79BFF18E0EB48844209D10D
:102590000121C804FFF793FF00214FF40020FFF74B
:1025A0008EFF0BE0E548844208D101210805FFF7C2
:1025B00086FF00214FF48010FFF781FF10BD2DE949
:1025C000F04786B005460E460024A24600BFA1464D
:1025D0000027B08900B100BF2F462C8A4CF6FF704F
:1025E0000440F08804432C82AC894EF6F31004407A
:1025F000B08831890843718908430443AC81AC8AAF
:102600004FF6FF400440B0890443AC8201A8FFF7B5
:10261000C2FEC648874202D1DDF810A001E0DDF815
:102620000CA0A88900F4004040B10AEBCA0000EBFE
:102630000A1031684900B0FBF1F807E00AEBCA0064
:1026400000EB0A1031688900B0FBF1F86420B8FB98
:10265000F0F004012009642101FB1089A88900F42D
:10266000004040B1322000EBC900B0FBF1F000F0B7
:102670000700044308E0322000EB09106421B0FB9E
:10268000F1F000F00F0004432C8106B0BDE8F087A4
:102690004FF41651016000218180C18001810C211D
:1026A000418100218181704710B502460020108AC7
:1026B0004FF2FF0318400B884C8823438C88234338
:1026C000CC8823431843108210BD00210180418033
:1026D0008180C180704721B1828942F40052828199
:1026E00004E082894DF6FF731A4082817047F0B58D
:1026F0000346002400260025002040F66A17B94250
:1027000000D100BF1846C1F3421401F01F06012793
:1027100007FA06F5012C01D10C3004E0022C01D19E
:10272000103000E014301AB107682F43076002E050
:102730000768AF430760F0BD1AB1838A0B438382F9
:1027400002E0838A8B4383827047028A4FF6F073DC
:102750001A400282028A0A430282704782894FF23B
:10276000FF731A40828182890A438281704721B1B6
:10277000828942F00202828104E082894FF6FD7371
:102780001A4082817047028A4FF6DF731A40028234
:10279000028A0A430282704721B1028A42F48042CF
:1027A000028204E0028A4BF6FF731A4002827047ED
:1027B000C1F308028280704701468888C0F3080090
:1027C0007047818941F0010181817047028BD2B24B
:1027D0000283028B42EA012202837047028B02F4D9
:1027E0007F420283028B0A430283704721B1828AAF
:1027F00042F02002828204E0828A4FF6DF731A40A0
:102800008282704721B1828A42F01002828204E003
:10281000828A4FF6EF731A408282704721B1828A12
:1028200042F00802828204E0828A4FF6F7731A406F
:102830008282704721B1828942F40042828103E0A2
:102840008289C2F30E028281704721B1828A42F4EA
:102850000062828204E0828A4FF2FF731A40828211
:102860007047828A4FF6FB731A408282828A0A433B
:102870008282704721B1828A42F00202828204E0A1
:10288000828A4FF6FD731A4082827047024600200A
:10289000B1F5007F00D100BF13880B400BB10120C0
:1028A00000E00020704701F40072B2F5007F00D113
:1028B00000BFCA430280704770B50246002400235F
:1028C0000025002040F66A16B14200D100BFC1F3D6
:1028D000421501F01F03012606FA03F3012D02D170
:1028E0009689334006E0022D02D1168A334001E07A
:1028F000968A33400C12012606FA04F416883440F6
:1029000013B10CB1012000E0002070BD10B5002211
:10291000002340F66A14A14200D100BF0A1201242C
:102920009440A3B2DC43048010BD00000038014095
:102930000044004000480040004C0040005000406F
:1029400031490143314A1160704770B500210023BD
:102950000F22C47804B32D4C246804F4E064C4F559
:10296000E064210AC1F10403CA40447804FA03F187
:102970008478144021430901254C0678A155047838
:1029800004F01F050124AC4005786D11AD0005F180
:10299000E025C5F8004109E0047804F01F05012492
:1029A000AC401C4D0678761145F8264070BD1A4A99
:1029B0000A400243154B1B1F1A60704739B1134A76
:1029C000121D12680243114B1B1D1A6006E00F4ACC
:1029D000121D126882430D4B1B1D1A60704704289C
:1029E00008D14FF0E021096941F004014FF0E022E5
:1029F000116107E04FF0E021096921F004014FF077
:102A0000E0221161704700000000FA050CED00E0C3
:102A100000E400E080E100E080FFFF1F10B5044605
:102A2000FE48844208D10121C014FFF73BFD00217C
:102A3000E014FFF737FDC4E0B4F1804F08D1012165
:102A40000846FFF73CFD00210120FFF738FDB8E004
:102A5000F348844208D101210220FFF730FD002114
:102A60000220FFF72CFDACE0EE48844208D10121A2
:102A70000420FFF724FD00210420FFF720FDA0E043
:102A8000E948844208D101210820FFF718FD002100
:102A90000820FFF714FD94E0E448844208D10121A6
:102AA0001020FFF70CFD00211020FFF708FD88E043
:102AB000DF48844208D101212020FFF700FD0021DA
:102AC0002020FFF7FCFC7CE0DA48844208D1012199
:102AD0004014FFF7E7FC00216014FFF7E3FC70E00F
:102AE000D548844209D10121C804FFF7DBFC00214D
:102AF0004FF40020FFF7D6FC63E0D048844209D1B0
:102B000001210805FFF7CEFC00214FF48010FFF7EC
:102B1000C9FC56E0CA48844209D101214805FFF7A3
:102B2000C1FC00214FF40010FFF7BCFC49E0C54890
:102B3000844208D101214020FFF7C1FC0021402040
:102B4000FFF7BDFC3DE0C048844208D10121802050
:102B5000FFF7B5FC00218020FFF7B1FC31E0BB4856
:102B6000844208D101218015FFF7A9FC0021A0159E
:102B7000FFF7A5FC25E0B648844209D101210804ED
:102B8000FFF790FC00214FF48030FFF78BFC18E03A
:102B9000B048844209D101214804FFF783FC002199
:102BA0004FF40030FFF77EFC0BE0AB48844208D1C5
:102BB00001218804FFF776FC00214FF48020FFF705
:102BC00071FC10BD00220288944B98420ED0994BA4
:102BD00098420BD0B0F1804F08D0914B984205D06D
:102BE000904B984202D0904B984204D14FF68F738D
:102BF0001A404B881A438D4B984207D08C4B984211
:102C000004D04FF6FF431A40CB881A4302808B88CA
:102C100083850B880385814B98420BD0854B984266
:102C200008D08B4B984205D08A4B984202D08A4BF1
:102C3000984201D10B7A038601238382704770B5D5
:102C4000002400220023058C4FF6FE7635400584D3
:102C5000028C8388048B4FF68F752C40B51E2C4058
:102C60000D882C43751E2A400D892A434D882A431E
:102C70006A4DA8420BD06F4DA84208D0744DA842AF
:102C800005D0744DA84202D0734DA84213D14FF61F
:102C9000F7752A404D892A434FF6FB752A408D88E7
:102CA0002A434FF6FF652B404FF6FF552B408D8989
:102CB0002B43CD892B4383800483CD888586028472
:102CC00070BD70B5002400220023058C4FF6EF760E
:102CD00035400584028C8388048B48F6FF752C40B0
:102CE0004FF6FF452C400D884FF6FF7606EA052586
:102CF0002C434FF6DF752A400D8906EA05152A4355
:102D00004D8806EA05152A43444DA84202D0494D94
:102D1000A8421DD14FF67F752A404D894FF6FF76A8
:102D200006EA05152A434FF6BF752A408D8806EA44
:102D300005152A434FF6FF352B404FF2FF752B4008
:102D40008D8906EA85052B43CD8906EA85052B4347
:102D500083800483CD880587028470BD70B500240C
:102D600000220023058C4FF6FF6635400584028C57
:102D70008388848B4FF68F752C404FF6FC752C4062
:102D80000D882C434FF6FF552A400D894FF6FF76EC
:102D900006EA05252A434D8806EA05252A431F4DE4
:102DA000A84202D0234DA8421DD14FF2FF752A4000
:102DB0004D894FF6FF7606EA05252A434FF6FF3583
:102DC0002A408D8806EA05252A434EF6FF752B40DA
:102DD0004DF6FF752B408D8906EA05152B43CD89ED
:102DE00006EA05152B4383808483CD88858702847A
:102DF00070BD70B5002200230024058C4EF6FF76CE
:102E000035400584038C8488828B48F6FF752A4000
:102E10004FF6FF452A400D8820E00000002C0140BD
:102E20000004004000080040000C0040001000407A
:102E30000014004000340140004C014000500140AB
:102E40000054014000180040001C004000200040D9
:102E50000040014000440140004801404FF6FF7629
:102E600006EA05252A434DF6FF752B400D8906EA33
:102E700005352B434D8806EA05352B43FA4DA8420C
:102E800002D0FA4DA84208D14BF6FF752C408D892F
:102E90004FF6FF7606EA85152C4384808283CD8821
:102EA000A0F84050038470BD828B4FF2FF331A406C
:102EB0008283828B4FF6FF7303EA01231A438283D6
:102EC0007047F0B50C461546002200210026078CFD
:102ED0004EF6FF7C07EA0C070784828B018C4FF6C5
:102EE000FF7707EA043640F6FF473A404FF6FF7790
:102EF00007EA05273A434FF6FF7707EA03373A43D5
:102F0000D94FB8420ED0D94FB8420BD0B0F1804F54
:102F100008D0D74FB84205D0D64FB84202D0D64FCE
:102F2000B84206D14DF6FF77394046F48057394311
:102F300005E047F6FF57394044F480573943828310
:102F40000184F0BD828B4FF6F3731A408283828B2B
:102F50000A4382837047F0B50C46154600220021D3
:102F60000026078C4FF6FF6C07EA0C070784828B5C
:102F7000018C4FF6FF7707EA04264FF60C773A40AC
:102F80004FF6FF7707EA03172F433A43B64FB8428D
:102F90000ED0B64FB8420BD0B0F1804F08D0B44F2E
:102FA000B84205D0B34FB84202D0B34FB84206D1B1
:102FB0004FF6FF57394046F48077394305E04FF22A
:102FC000FF57394044F48077394382830184F0BD50
:102FD000028B4FF2FF331A400283028B4FF6FF73CE
:102FE00003EA01231A4302837047F0B50C461546E5
:102FF000002200210026078C4FF6EF7C07EA0C0721
:103000000784028B018C4FF6FF7707EA041640F61F
:10301000FF473A404FF6FF7707EA03373A434FF648
:10302000FF7707EA05273A438F4FB8420ED08F4FFC
:10303000B8420BD0B0F1804F08D08D4FB84205D0C8
:103040008C4FB84202D08C4FB84206D14FF6DF7792
:10305000394046F01007394305E04FF65F773940B5
:1030600044F01007394302830184F0BD028B4FF610
:10307000F3731A400283028B0A4302837047F0B550
:103080000C46154600220021068C4FF6FE773E4086
:103090000684028B018C4FF60C7632407E1C06EAC9
:1030A00003162E433243704EB0420ED06F4EB042E4
:1030B0000BD0B0F1804F08D06D4EB04205D06D4EB0
:1030C000B04202D06C4EB04206D14FF6FD76314090
:1030D00044F00106314305E04FF6F576314044F007
:1030E0000106314302830184F0BD70B505460C46EC
:1030F0005D4885420ED05D4885420BD0B5F1804FCA
:1031000008D05B48854205D05A48854202D05A48CB
:10311000854200D100E000BF208850B92389A288F1
:1031200061882846FFF7ABFFE1882846FFF79EFF3E
:1031300025E0208804280AD12389A28861882846AE
:10314000FFF753FFE1882846FFF742FF17E020888A
:1031500008280AD12389A28861882846FFF7FBFE48
:10316000E1882846FFF7EEFE09E02389A2886188FE
:103170002846FFF7A6FEE1882846FFF795FE70BDBA
:103180002DE9F04105460C4600260127608808B964
:10319000022600E00026A088012801D1022700E0D5
:1031A00001272088A0B92389A28861882846FFF7D3
:1031B00066FFE1882846FFF759FF23893A463146E2
:1031C0002846FFF712FFE1882846FFF701FF13E0CA
:1031D0002389A28861882846FFF707FFE1882846EF
:1031E000FFF7F6FE23893A4631462846FFF747FFA8
:1031F000E1882846FFF73AFFBDE8F0810A884B884E
:103200001A438B881A43CB881A430B891A434B897C
:103210001A438B891A43A0F8442070474FF6FF7178
:10322000818000210180C1804180017270470021AE
:10323000018041808180C180018141818181C18182
:103240007047002101804180012181800021C180DF
:10325000018170470021018041808180C18001810E
:103260004181818170470000002C01400034014001
:103270000004004000080040000C004021B102881A
:1032800042F00102028004E002884FF6FE731A4009
:103290000280704731B1B0F8442042F40042A0F8F7
:1032A000442005E0B0F84420C2F30E02A0F8442008
:1032B00070471AB183890B43838102E083898B4372
:1032C000838170478182704741EA0203A0F8483049
:1032D00070471AB183890B43838102E083898B4352
:1032E0008381704701894FF6F87211400181704760
:1032F0000A46002101894FF68F731940114301815D
:10330000704730B504460D4629462046FFF7F0FFCA
:10331000208940F00700208130BD2DE9F0410446AE
:103320000D4616461F46602D06D13B46012231460A
:103330002046FFF75AFE05E03B4601223146204673
:10334000FFF79DFE29462046FFF7D2FF208940F077
:1033500007002081BDE8F08130B50C4600210189CD
:10336000C9B24FF6FF7505EA0325154325432943E6
:10337000018130BD2DE9F04105460E4617469846BD
:10338000002443463A4631462846FFF7E5FF2C899C
:103390004FF6F870044044F007044FF68F70044075
:1033A00044F070042C81BDE8F081F0B504460D4670
:1033B00016461F463B46324629462046FFF7CCFFBD
:1033C000208940F480402081F0BD018582827047D1
:1033D0000A46002101884FF68F731940114301807E
:1033E0007047F0B50C4615461E460021002200230A
:1033F0000189028B038C4FF6F877394021434FF651
:10340000FC473A4040F201173A434FF6DD773B4024
:103410004FF6FF7707EA06172F433B4301810283EC
:103420000384F0BD0A460021018B4FF68F731940CB
:103430001143018370470A460021018B48F6FF7350
:1034400019404FF6FF7303EA0223194301837047C3
:103450000A460021818B4FF68F73194011438183F7
:1034600070470A460021818B48F6FF7319404FF6DA
:10347000FF7303EA022319438183704721B1028855
:1034800042F08002028004E002884FF67F731A4007
:103490000280704721B1828842F00402828004E0F9
:1034A00082884FF6FB731A408280704721B1828870
:1034B00042F00802828004E082884FF6F7731A40D7
:1034C0008280704721B1828842F00102828004E04C
:1034D00082884FF6FE731A40828070470A460021A8
:1034E000018B4FF6F77319401143018370470A4669
:1034F0000021018B4FF2FF7319404FF6FF7303EA6F
:1035000002231943018370470A460021818B4FF63D
:10351000F77319401143818370470A460021818B5C
:103520004FF2FF7319404FF6FF7303EA022319436A
:10353000818370470A460021018B4FF6FB731940C7
:103540001143018370470A460021018B4FF6FF3378
:1035500019404FF6FF7303EA0223194301837047B2
:103560000A460021818B4FF6FB731940114381837A
:1035700070470A460021818B4FF6FF3319404FF602
:10358000FF7303EA02231943818370470A4600212F
:10359000018B4FF67F7319401143018370470A4630
:1035A0000021018BC1F30E014FF6FF7303EA0223E2
:1035B0001943018370470A460021818B4FF67F73C0
:1035C00019401143818370470A460021818BC1F362
:1035D0000E014FF6FF7303EA0223194381837047FC
:1035E0000A460021018C4FF6FD73194011430184F6
:1035F00070470A460021018C4FF6F77319401143BA
:10360000018470470A460021018C4FF6DF73194090
:103610004FF6FF7303EA02131943018470470A4609
:103620000021018C4FF67F7319404FF6FF7303EAB8
:1036300002131943018470470A460021018C4FF69A
:10364000FF5319404FF6FF7303EA02231943018425
:1036500070470A460021018C4FF2FF7319404FF664
:10366000FF7303EA02231943018470470A460021CD
:10367000018C4DF6FF7319404FF6FF7303EA0233D6
:1036800019430184704730B5002301248C40A3B254
:10369000048C9C430484048C02FA01F5ADB22C43E3
:1036A000048430BD30B5002304248C40A3B2048CC4
:1036B0009C430484048C02FA01F5ADB22C430484CB
:1036C00030BD70B50346002000241846183001258F
:1036D0008D40ACB21D8CA5431D8409B1082909D1C8
:1036E00000EB6100056825F070050560056815436D
:1036F00005600EE00D1FC5F34E052844056825F44E
:10370000E045056005684FF6FF7606EA0226354378
:10371000056070BD21B1028842F00202028004E01F
:1037200002884FF6FD731A400280704721B102886B
:1037300042F00402028004E002884FF6FB731A4054
:103740000280704721B1828842F08002828004E0CA
:1037500082884FF67F731A408280704702884FF646
:10376000F7731A40028002880A43028070478288F9
:103770004FF68F731A40828082880A438280704796
:1037800002894FF6F8731A40028102890A430281C6
:10379000704702894FF67F731A40028102890A43FB
:1037A00002817047818470478185704781867047A8
:1037B0000187704781877047A0F8401070470288E2
:1037C0004FF6FF431A40028002880A430280704786
:1037D0000146888E70470146088F70470146888FE2
:1037E00070470146B1F8400070470146888C704729
:1037F0000146088D704702460020138A0B400BB12A
:10380000012000E000207047CA430282704730B5B3
:103810000246002000230024158A05EA0103958949
:1038200005EA010413B10CB1012000E0002030BD15
:10383000CA430282704770477047704770477047AD
:1038400010B500F009F8006810BD10B5044600F08E
:1038500003F8046010BD000000487047000200201B
:1038600000487047000200207546FFF7F9FFAE469A
:1038700005006946534620F00700854618B020B57C
:10388000FEF7C8FABDE820404FF000064FF00007F1
:103890004FF000084FF0000B21F00701AC46ACE8F8
:1038A000C009ACE8C009ACE8C009ACE8C0098D4665
:1038B000704710B50446AFF300802046BDE81040C5
:1038C000FCF77BBC490050EAC12018BF04204A0D18
:1038D00018BF40F0010040F2FF72B2EB515F08BF29
:1038E00040F00200012808BF052070472DE9F74F7E
:1038F000144694B00021C4E902111599079121F0F2
:103900000045C9498D4206DC1599C4E9000117B08C
:103910000020BDE8F08FC549DFF814A3A9423CDDC3
:103920000799C44E0029C44FC44A1599534619DD5E
:1039300001F0CEFF554506D0C14AC24B01F0C8FF89
:10394000C4E900010AE04FF0D352BE4B01F0C0FFC2
:1039500032463B4601F0BCFFC4E9000117B001202C
:10396000BDE8F08F01F0B6FA554506D0B44AB54B24
:1039700001F0B0FAC4E900010AE04FF0D352B14BB4
:1039800001F0A8FA32463B4601F0A4FAC4E900016E
:1039900017B04FF0FF30BDE8F08FAB49A942159941
:1039A00078DB21F0004183468846A84AA84B01F005
:1039B00069FD0022A74B01F08DFA01F09FFC0990F0
:1039C00001F0F9FC06460F469C4A534601F05AFDA9
:1039D00043465A4601F08AFE80468A46984A994BE9
:1039E0003046394601F04EFD2A0D01250B92424624
:1039F000534601F07BFE032DC4E9000139D00B983A
:103A0000C1F30A51401A05EB45111139814230DAF0
:103A10009148C346784400EB0510CDF80CA00C90FB
:103A2000D0E900233046394601F02CFD02460B4612
:103A3000049106905846039901F04AFF80468A4651
:103A400002460B465846039901F042FF049B069A32
:103A500001F03EFF83460C9803913946D0E90223DA
:103A6000304601F00FFD5A46039B01F031FF6D1CFB
:103A7000BDE707980028A2BF099817B0BDE8F08FEE
:103A8000616881F000416160099817B04042BDE86B
:103A9000F08FFFE784461598C1F31301C0F30A5075
:103AA000A0F2F5304FEA601800F01F06C6F12000C2
:103AB000139000200690079041F4801E05206D466B
:103AC00076B1664A08EB00017A4452F8213002EBE5
:103AD0008101B3404A68139922FA01F1194305E0C4
:103AE0005F4908EB0002794451F82210A1FB0E2730
:103AF000A1FB0C131A449A4234BF0123002303EBA9
:103B0000070A05EB8003D3E901B70F448F4234BFA6
:103B10000121002193448B4411B1934502D903E064
:103B2000934501D2012100E00021C3E901B75144CE
:103B300045F82010011EA0F10100C1DC0298059F8C
:103B400000F10050800F12900298DDE903568000CA
:103B500001F031FC834628460D9101F043FC6FF0E3
:103B60001D0201F0D1FFCDE90E01304601F03AFC13
:103B70006FF03D0201F0C8FF80468A46384601F0EA
:103B800031FC6FF05D0201F0BFFF0746424653462D
:103B9000119101F09FF9DDE90E2301F09BF95A46DE
:103BA0000D9B01F097F900250E465A4628460D9BBD
:103BB00001F08EFEDDE90E2301F08AFE42465346F7
:103BC00001F086FE3A46119B01F090FDDFF898A0C7
:103BD000244A534601F056FC07468846234A244BA4
:103BE0003146284601F04EFC3A46434601F072F950
:103BF000074688464FF0A84253463146284601F012
:103C000041FC3A46434601F065F9159A12F0004F1F
:103C100004D0129A81F0004152421292C4E900018C
:103C2000129817B0BDE8F08FFB21E93F7CD9024024
:103C3000FB21F93F7370032E8A19A33B0000405407
:103C40003163621A61B4D03DFB21394183C8C96D2B
:103C5000305FE43F0000E03F902200000C220000B3
:103C6000EE210000182D4454FB21F93D3326A61106
:103C7000460B113C2DE9FF4D21F0004807460C464C
:103C8000B8F1795F08DA01F039FB002801BF0020A4
:103C9000324904B0BDE8F08D3A4623461046194635
:103CA00001F0F0FB054602462D480E460B46062164
:103CB000784400F05DF82A46334601F0E3FBDDE985
:103CC000022382468B463846214601F0DBFB044640
:103CD0000F4652465B462846314601F0D3FB22464A
:103CE0003B4601F0F5FD07468A464FF0FF32284675
:103CF000314601F009FF1B4A90450ADA3A4653461D
:103D000001F0E6FD04B00022BDE8F04D134B01F0D8
:103D1000EDBC154A4245A8BFA8F500154FF00004B8
:103D2000B8BF124D22462B4601F0D2FD064688460A
:103D300022462B460020094901F0CAFD04460D46E3
:103D40003A4653463046414601F0C2FD04B0224691
:103D50002B46BDE8F04D01F0C9BC00000000F03F6B
:103D6000BC1F00003333D33F0000E93F0000D23FC7
:103D70002DE9F0414F1E00EBC7010446D1E90001D7
:103D800015461E4637F006020DD02A46334601F08E
:103D900079FB7F1E04EBC703D3E9002301F09AF8F7
:103DA00037F00602F1D1022F25D0042F13D0062FB1
:103DB00018BFBDE8F0812A46334601F063FBD4E921
:103DC0000A2301F087F82A46334601F05BFBD4E969
:103DD000082301F07FF82A46334601F053FBD4E96B
:103DE000062301F077F82A46334601F04BFBD4E96D
:103DF000042301F06FF82A46334601F043FBD4E96F
:103E0000022301F067F82A46334601F03BFBD4E970
:103E10000023BDE8F04101F05DB800002DE9FF4D41
:103E2000054621F0004084B00C46B0F1795F0BDA12
:103E30002846FFF747FD042808BF00F07FF8284612
:103E400008B02146BDE8F08D2A460B46104601F029
:103E500019FB06460F462A46234601F013FB80460F
:103E600026488A4632463B4605217844FFF780FFC4
:103E700083461098029160B3214A224B4046514636
:103E800001F000FBCDE900015A4640465146029B35
:103E900001F0F8FA82468846DDE906014FF0FF326C
:103EA00001F032FE5246434601F012FD32463B46D7
:103EB00001F0E8FADDE9062301F00AFDDDE900235F
:103EC00001F006FD08B02A462346BDE8F04D01F09A
:103ED0000DBC0B465A463046394601F0D3FA084A23
:103EE000084B00F0F7FF4246534601F0CBFA08B00A
:103EF0002A462346BDE8F04D00F0ECBF021F00004B
:103F0000495555555555C5BF002213461046014920
:103F100001F09CB80000F03F012201F0F5BD00F077
:103F2000D9BF002213461046114601F08FB840F267
:103F3000013200204FF0E04101F0E6BD024A0020CE
:103F4000110701F0E1BD000001FDFFFF2DE9F04D7B
:103F50008D4F21F0004A86B005460C46BA452ADB53
:103F6000AAEB070028430AD08848824501DC1AD111
:103F7000CDB106B02846BDE8F04DFFF7CDBF844A6D
:103F8000844B284601F07EFA07460E46824A834B50
:103F90002846214601F076FA06B03A463346BDE897
:103FA000F04D00F097BF0120FFF74FFC06B0BDE8D1
:103FB000F04DFFF7B6BF7A48824542DABAF1795F31
:103FC0000BDA2846FFF77EFC042808BFFFF7B6FF90
:103FD000284606B02146BDE8F08D2A460B4610461D
:103FE00001F050FA834602466E480E460B46062103
:103FF0007844FFF7BDFE5A46334601F043FA804647
:1040000069488A465A46334604217844FFF7B0FE91
:104010005A46334601F036FA00223B4600F05AFF7A
:1040200002460B464046514601F010F82A46234608
:1040300001F028FA06B02A462346BDE8F04D00F00C
:1040400049BF284624F0004100223D463B4601F08E
:104050004DFB4FF0FF3201F057FD06460246534834
:104060000F460B4606217844FFF782FE32463B4658
:1040700001F008FACDE900014D4832463B460421E3
:104080007844FFF775FE32463B4601F0FBF900220B
:104090002B4600F01FFF834602913046394600F060
:1040A000F3FE804643480D46504517DCDDE900012C
:1040B0005A46029B00F0CAFF42462B4601F0E2F945
:1040C00042462B4600F006FF012201F01DFD304A5A
:1040D000304B01F0FDFB304A304B4CE04FF0000A12
:1040E00052460B46404600F0F5FECDE9031052461D
:1040F0002B461046194601F0C5F932463B4601F001
:10410000F5FADDE9033200F0A1FF06460F46DDE9CE
:1041100000015A46029B00F099FF8346009101225C
:104120003046394601F0F0FC194A1A4B01F0DEFA2C
:1041300006460F4601224046294601F0E5FC5A4654
:10414000009B01F09FF932463B4601F0C1FB064659
:104150000F4601225046294601F0D6FC0E4DDFF8ED
:1041600058802A46434601F0C1FA32463B4601F0E8
:10417000BDFA2A46434601F0B9FA002CD8BF81F0B7
:10418000004106B0BDE8F08D0000F03F0000F07F78
:10419000075C143326A6913C182D4454FB21F93FAB
:1041A0000000E03FA41B0000BA1B00002E1B000013
:1041B000441B00003333EF3FFB21E93F2DE9F04181
:1041C000C1F30A52A2F2FF362F4A304B0D46044685
:1041D000142E2FDA002E12DA00F07CFE0022134695
:1041E00001F04EFA4CD2002DBCBF4FF00045002428
:1041F00046DB55EA040018BF254D19D140E0DFF831
:1042000094C02CFA06F705EA070C5CEA040C08BF18
:10421000BDE8F08100F05EFE0022134601F030FAA6
:104220002ED2002D03DD4FF48010F0400544BD4335
:10423000002425E0332EC8BFBDE8F081A6F1140CA0
:104240004FF0FF3727FA0CF73C4208BFBDE8F0817A
:1042500001F04CFA0022134601F012FA10D2002DA0
:104260000DDD142E08BF6D1C09D0C6F134000121EC
:1042700001FA00F02044A04238BF6D1C0446BC4344
:1042800029462046BDE8F0819C7500883CE4377ED5
:104290000000F03FFFFF0F0000B5244B21F000426B
:1042A00087B09A42DCBF0022134629DD204B9A4298
:1042B00008D140B94FF00100FFF7C7FAFFF731FE10
:1042C00007B000BD03DBFFF727FE07B000BD02AA61
:1042D000FFF70CFB10F0030104BF0DF1080C9CE884
:1042E0000F000DD0012001290ED0022914D00DF1AC
:1042F000080C00909CE80F00FFF790FD07B000BD90
:10430000FFF7B8FC07B000BD0DF1080C00909CE869
:104310000F00FFF783FD05E00DF1080C9CE80F008E
:10432000FFF7A8FC07B081F0004100BDFB21E93F89
:104330000000F07F2DE9F041C1F30A52A2F2FF36EE
:104340002F4A304B0D460446142E2FDA002E12DA77
:1043500000F0C0FD0022134601F092F94CD2002D6E
:10436000A4BF0024254647DA25F00040204318BFAB
:10437000254D41D018E0DFF894C02CFA06F705EA85
:10438000070C5CEA040C08BFBDE8F08100F0A2FD58
:104390000022134601F074F92ED2002D03DA4FF4F7
:1043A0008010F0400544BD43002425E0332EC8BFF3
:1043B000BDE8F081A6F1140C4FF0FF3727FA0CF797
:1043C0003C4208BFBDE8F08101F090F9002213469D
:1043D00001F056F910D2002D0DDA142E08BF6D1C15
:1043E00009D0C6F13400012101FA00F02044A042B6
:1043F00038BF6D1C0446BC4329462046BDE8F08109
:104400009C7500883CE4377E0000F0BFFFFF0F0082
:104410002DE9F04D1D460C4698B0174621F000419D
:1044200023F00043002814BF4FF0010C4FF0000CA4
:104430000CEB440CFE4A0CEB02064FEA620C66459C
:104440002BD33E0018BF012606EB45061644F94A59
:10445000964222D3F84A53EA070C02D0944205D17F
:1044600048B918B000201146BDE8F08D002808BFFB
:104470004FF0000C01D04FF0010C0CEB440212F590
:10448000001F0AD8002F14BF4FF0010C4FF0000C92
:104490000CEB450212F5001F07D918B03A462B461F
:1044A0002146BDE8F04DFFF73ABD0022DFF88CA3AE
:1044B000002CB8BF534526DADFF884C36345A8BF94
:1044C000022220DADFF870C39C451CDCDFF874C3DD
:1044D0000CEB235CBCF1140F08DDCCF1340627FA99
:1044E00006FC0CFA06F6BE420DD108E05FB9CCF12D
:1044F000140623FA06FC0CFA06F69E4203D10CF0D1
:104500000102C2F1020251EA000C19D1002D17DAA2
:10451000002C18BF022A01D0012A07D00220FFF781
:1045200094F918B0BDE8F04DFFF7EEBC0220FFF79C
:104530008CF9FFF7E9FC18B081F00041BDE8F08D7F
:10454000B7F1000C6CD1534525D104F1804212F52E
:10455000801201BF00280020B74918B008BFBDE88D
:10456000F08DB548884207DC002DA1BF6046294682
:1045700018B0BDE8F08D07E0281E05DA80F0004194
:1045800018B06046BDE8F08DAF497944D1E900012B
:1045900018B0BDE8F08DDFF8A0C2634525D1002D2D
:1045A0001FDA19B1514512D1D8B909E0002840F0FD
:1045B000EC82A24A214618B062F31E01BDE8F08DDC
:1045C0000020214618B060F31E01BDE8F08D08DA26
:1045D00018B02346BDE8F04D02460020614600F0C9
:1045E00035BD18B02146BDE8F08D514518DAB5F15A
:1045F000804F0DD0A5F1005CBCF1FF5C10D1B4F18F
:10460000000C0DDB18B06146BDE8F04D00F03CBC7D
:10461000234618B00246BDE8F04D194600F032BFFF
:10462000060024F0004C3BD1D9B1514533D1002CC8
:1046300006DD002DA1BF0020514618B0BDE8F08D69
:10464000002C01DD002D1BDB002C13DA002D11DB0B
:10465000012A4FF0000014BF78497C4918B0BDE82A
:10466000F08D022A18BF002C0AD0012A08D1002C94
:1046700006DA0AE0002CB8BF002D11DA012A04D0B6
:10468000002018B00146BDE8F08D18B000204FF0B2
:104690000041BDE8F08DA1F14050B0F17F601AD02B
:1046A000012000EBE47050EA020421D0624C521E5B
:1046B0004FF0000B104304BF4FF0000B644C6548F3
:1046C00083427CDD644A654893421FDD884217DBE4
:1046D000002D25DB37E0002C00DA4AB1022A0CBF9E
:1046E00001204FF0FF3018B0BDE8F04D00F063BE80
:1046F0000120FFF7AAF818B0BDE8F04DFFF711BC94
:104700004D4A8A4202DC002D0ADC1CE0814202DABA
:10471000002D18DA04E0484B994220DD002D12DD0F
:104720000220FFF792F8FFF702FC05460E46002232
:1047300053465846214600F0A5FE18B066F31E0108
:104740002846BDE8F08D0220FFF77FF8FFF7F6FB63
:104750000A46214618B062F31E01BDE8F08D002222
:104760003046614601F0B4F880460E466FF0010213
:1047700001F0CAF94FF05532394B00F0B7FF42460D
:10478000334600F07FFE0022364B00F0AFFF82463A
:104790004246334604911046194600F073FE5246D5
:1047A000049B00F06FFE8A4600904FF0C0422E4BF3
:1047B0004046314600F066FE2C4A2B4B00E027E0D5
:1047C000CDE906015146009800F05CFE8246019159
:1047D000274A284B4046314600F054FE5246019B82
:1047E00001F076F882460B4602460591DDE90601A6
:1047F00000F070FBDDE9062300268846304601F014
:1048000067F85246059B00F071FF024600F07EB942
:104810000020B1F5801F07DA35223046614601F0ED
:1048200073F906466FF0340000EB215024E00000DD
:10483000FFFF1F00FFFF0F000000F03F0000F07FB0
:104840000000404301FCFFFF121700000000F0FFD2
:104850000000F0BF0000E0410000F043FFFFEF3F29
:104860005555D53F0000E03F4715F73FFE822B65C9
:1048700044DF5DF80BAE543EA0F2FF300190C1F36F
:10488000130040F07F6141F040510291FE4988429F
:10489000D8BF002004DDFD498142C8BF012001DDF1
:1048A0000D9008E000200D900198401C01900298A6
:1048B000A0F5801002900299F54878440B910D996B
:1048C00000EBC100D0E900230F9330460A920B9908
:1048D00000F0FEFFCDE90601DDE90A2130460F9B1D
:1048E00000F0F8FA02460B460020EA4900F0AEFB61
:1048F000059102460B460090DDE9060100F0C2FD7D
:104900001490E5488A464FF0000878440299006800
:1049100012904FF0005040EA61010D980F9B01EB9F
:10492000804000F5002109910A9A129800F0D0FF0A
:1049300032460B9B00F0DAFE4246534600F0A2FDE1
:104940000646029140465146099B129A00F09AFD94
:10495000DDE9062300F0CAFE3246029B00F0B8FFF4
:10496000059B009A00F08EFD0091149A0490534626
:104970001046194600F086FD06460246C7480B461B
:10498000029106217844FFF7F3F9CDE90510029B67
:1049900032461046194600F075FDDDE9053200F09B
:1049A00071FD05910646534640461946149A00F09B
:1049B00091FA009B049A00F065FD3246059B00F0D9
:1049C00089FACDE90510424653461046194600F0D3
:1049D00059FD0022B24B02910A9000F07BFADDE90A
:1049E000053200F077FA0E464246AD4B404600F0E5
:1049F0006FFF029B0A9A00F06BFFDDE9053200F0C1
:104A000075FE424602910A9033461046514600F028
:104A100039FDCDE906015346149A02990A9800F02F
:104A200031FD8A460290334642460099049800F0D0
:104A300029FD5346029A00F04DFA82460B46024683
:104A40000591DDE9060100F045FADDE906230020C5
:104A50008846064600F03CFF5246059B00F046FEA5
:104A6000824609914FF060428E4B3046414600F03D
:104A700009FD049006918C4A8A4B5046099900F032
:104A800001FD82460291894A894B3046414600F039
:104A9000F9FC5246029B00F01DFA864B7B440D9AAE
:104AA00003EBC203D3E9002300F014FA0E90079140
:104AB000019800F080FC0591DDE9061382460E9A0C
:104AC000049800F007FA7C4A7A440D9B02EBC3037A
:104AD000D3E900230093029200F0FCF95246059BB3
:104AE00000F0F8F90026884652463046059B00F053
:104AF000EFFE009B029A00F0EBFE069B049A00F08A
:104B0000E7FE079B0E9A00F0F1FD024600200B46DF
:104B100002903846294600F0B5FC824601912B46AA
:104B200038461946029A00F0D3FE3246434600F05A
:104B3000A9FC5246019B00F0CDF907468A46324651
:104B400043462946029800F09DFC05460E463A462B
:104B5000534600F0BFF9594A8846914221DBA8EB41
:104B6000020353EA000210D12A46334600F0B0FE99
:104B7000CDE90401524A534B3846514600F0AAF998
:104B8000DDE9042300F07CFD21D20220FEF75DFE6A
:104B9000FFF7CDF90A46214618B062F31E01BDE8C1
:104BA000F08D494B28F000429A4210D3474A08EB57
:104BB000020353EA00027FF4C6AD2A46334600F0F2
:104BC00087FE3A46534600F05BFD7FF6BCAD0022FF
:104BD000019228F000403E493E4A01EB20518242BA
:104BE00023DA481C4FF4801121FA00F040443A4A7D
:104BF000C0F30A517A44394BA1F2FF31CB4020EA8D
:104C00000303C0F3130040F48010C1F11401C84045
:104C100012680190B8F1000FBCBF404201902846D5
:104C2000314600F055FE05460E462A4633463846C4
:104C3000514600F04FF94FF000084246284B4046DD
:104C4000059100F01FFCCDE90601264A264B40469F
:104C5000059900F017FC009102902A463346404621
:104C6000059900F035FE3A46534600F03FFD1F4AD5
:104C70001F4B00F007FC009B029A00F02BF907463F
:104C8000884602460B4635E08E9803007AB60B0044
:104C90002A1300000000F03F921300009012000061
:104CA0000000084009C7EE3FFD033ADCF5015B1444
:104CB000E02F3EBE681100002C1100000000904063
:104CC000FE822B654715973C00CC904000346F3F27
:104CD00001FCFFFF0000E03FA8100000FFFF0F00F5
:104CE000432EE63F396CA80C615C20BEEF39FAFE1A
:104CF000422EE63FDDE9060100F0ECF8DDE906238F
:104D000005460E4600F0E4FD3A46434600F0EEFC50
:104D10000F462A46334600901046194600F0B2FB73
:104D2000824602462E4888460B4605217844FFF706
:104D30001FF85246434600F0A5FB2A46334600F0D2
:104D4000D5FC80468A463B4628463146009A00F00C
:104D500099FB3B46009A00F0BDF8069100900022B6
:104D60004FF080434046514600F0B2FD0F460C9094
:104D7000424653462846314600F084FB3B460C9A97
:104D800000F064F9069B009A00F0A2FD2A46334623
:104D900000F09EFD0022134B00F0A8FC0546019890
:104DA0000E4601EB00510815002810DC284631465C
:104DB000019A00F0A9FEFEF785FD042808BFFFF761
:104DC000BDF828463146019A00F09EFE05460B4686
:104DD00018B02A4658462146BDE8F04D00F052BBB7
:104DE000180F00000000F03F00B5254B21F00042F5
:104DF00087B09A4203DC0022134600922BE0214B3D
:104E00009A4208D140B94FF00100FEF71EFDFFF7AE
:104E100088F807B000BD03DBFFF77EF807B000BDE0
:104E200002AAFEF763FD10F003014FF001000DD060
:104E3000012914D002291AD00DF1080C9CE80F00AA
:104E4000FEF718FF07B081F0004100BD0DF1080C1E
:104E500000909CE80F00FEF7E1FF07B000BD0DF1E8
:104E6000080C9CE80F00FEF705FF07B000BD0DF130
:104E7000080C00909CE80F00FEF7D0FFE2E700006E
:104E8000FB21E93F0000F07F2DE9F04106460F4687
:104E900000F038FC041E0D4618BF0120284320F006
:104EA0000040C0F17F6000F1E040C00F0ED0301C28
:104EB00018BF0120384320F00040C0F17F6000F1AE
:104EC000E040C00F04BF0120FEF7BFFC204629468A
:104ED000BDE8F08110B591EA030F48BF83F00043AD
:104EE00000F1FE84841A71EB030C05D2121943EB16
:104EF0000C03001B61EB0C01DFF824E14FEA1154B5
:104F0000A4EB135C1EEA430F18BF9EEA445F73D004
:104F100023EA0E03DCF1200E21EA045143F480134E
:104F200032D322FA0CFE10EB0E0023FA0CFE41EBFA
:104F30000E01CCF1200E03FA0EFE10EB0E0051F123
:104F40000001B1F5801FCCF1200E32D201EB0451EB
:104F500012FA0EF2BDE8104058BF7047401C38BF2F
:104F60005FEA420218BF7047002814BF20F001001A
:104F700041F100014FEA410313F5001F38BF7047AC
:104F8000A1F1C04100F076BB012A43EB0302ACF172
:104F9000200CDCF11F0E32BF4FF0000E23FA0CF391
:104FA00010EB030041EB0451B4EB115FD0D0A1EB47
:104FB000045101F5801149085FEA300001EB04510A
:104FC0000ED350F1000038BF12FA0EFE08D1BDE832
:104FD0001040C9E7401C38BF5FEA4202CAD1C3E7AC
:104FE000BDE810404FEA410313F5001F38BF70477A
:104FF000A1F1C04100F03EBB9EEA445F08D011EA37
:105000005E0FBDE8104004BF01F000410020704772
:10501000BDE8104070B500F0DFFA00BF64FBBE3E93
:105020000000E0FF02494FF0000000F03BBD00BF70
:105030000000F87F491058BFC1F140415B1058BFD4
:10504000C3F140438B42EFF3008070472DE9C0412C
:1050500030B4DFF8A0C23CEA111418BF3CEA1314C4
:1050600000F0EC8081EA03051CEA111444EAD574CF
:1050700018BF1CEA131500F0C780A4EB05044FF01D
:10508000004545EAC12145EAC32341EA505143EABC
:10509000525304F17F74994204F500344FEAC02062
:1050A0004FEAC22208BF904200F09C804FEA13658D
:1050B0000FF24016765D4FEA134506FB05F7C7F180
:1050C000807706FB07F74FEAD737A7FB03687642DE
:1050D000C8F58038A7FB06CE38BFA8F1010807FB4A
:1050E00008E64FF0000EA6FB028CE6FB03CEDCF1D7
:1050F000000CCEF1004E38BFAEF1010EA6FB0C58ED
:105100004FF000074FF00005E6FB0E87A1FB08C635
:10511000A0FB07CE16EB0E0645F10005E1FB076587
:1051200015F1E04E7EBFA4F580345FEA46066D417E
:1051300016F1800745F100054FEA17274FEA06668A
:1051400047EA0567A6F1DE46B6F1805F4FEA15250E
:105150001FD9384624F0010C05EBC471BCF1FE6F79
:1051600001EB0C1102D8F0BCBDE8008124425CBF09
:1051700001F5801E9EEAC47F02D4F0BCBDE8008128
:10518000244238D4F0BCA1F1C041BDE8004100F098
:1051900071BA4FEAD22242EA43524FEAD323A7FB25
:1051A00002864FEAD02040EA415007FB03661EEA20
:1051B0000E0F4FEAD12105FB026658BFA6EB005641
:1051C000B6EB00564FEA520E4EEAC37E18EB0E0EB7
:1051D00056EB530EBDD518EB02085E417F1C55F10E
:1051E0000005B6E74FF480154FF000074FF00006BA
:1051F0004FF00008ADE7F0BC4FF0000001F1C041F6
:1052000001F00041BDE8008111EA0C1F0CEA131502
:1052100000D00CE013EA0C1F00F025804FF00000D6
:10522000F0BC81EA030101F00041BDE80081F0BC5F
:10523000BDE8004181EA030100F01CBAF0BCBDE802
:10524000004170B500F0C8F9097EFC3E00F007B8D7
:1052500081EA03014FF0000001F00041704781EA4C
:10526000030100F007BAF0BCBDE800414FF00000B8
:1052700021497047FFFDFBF9F7F5F4F2F0EEEDEB95
:10528000E9E8E6E4E3E1E0DEDDDBDAD8D7D5D4D344
:10529000D1D0CFCDCCCBCAC8C7C6C5C4C2C1C0BF90
:1052A000BEBDBCBBBAB9B8B7B6B5B4B3B2B1B0AF96
:1052B000AEADACABAAA9A8A8A7A6A5A4A3A3A2A17A
:1052C000A09F9F9E9D9C9C9B9A9999989797969535
:1052D00095949393929191908F8F8E8E8D8C8C8BD1
:1052E0008B8A898988888787868585848483838259
:1052F000828181800000FF070000F87F4FEA4103B0
:105300004FEA5353A3F58063D3F11E03C8BFD3F113
:10531000210C0CDD4FF0004242EAC12242EA505219
:1053200032FA03FC8CEAE17CACEBE1707047102BA5
:10533000C4BF0020704703F5787CBCF1FF3F04D068
:105340006FF0004282EA2100704770B500F044F926
:105350004992248000207047F2E700004FEA115381
:10536000A3F58063D3F11E03A8BFD3F1200C08DBA3
:105370004FF0004242EAC12252EA505232FA03F0A0
:10538000704709420BD4102BC4BF0020704703F5AF
:10539000787CBCF1FF3F05D04FF0FF3070474FF0F5
:1053A0000000704770B500F017F900BF49922480E3
:1053B00000207047F0E710F0004248BF4042B0FACA
:1053C00080F310FA03F10AD0C3F11D0303F58063E3
:1053D0004FEA415002EB035202EBD12170474FF0EC
:1053E00000007047B0FA80F310FA03F10AD0C3F15D
:1053F0001D0303F580634FEA41504FEA035202EB6D
:10540000D12170474FF000007047000051EA030CB3
:1054100017D41CF5801F58BFBCF5801F00F1068013
:10542000994218BF704708BF9042704707D711F5DF
:10543000801F58BF13F5801F19D4994270478942C5
:1054400070471CF5801F08D5BCF5801FF7D58B422F
:1054500018BF704708BF824270474FF4001C1CEB16
:10546000410F38BF1CEB430F01D28B42704770B520
:1054700000F0B2F8922449004FF000514FF08053F1
:10548000FFF7D8BDDFF848C170B51CEA111E1EBF7A
:105490001CEA13159EEA0C0F95EA0C0F00F06F80C2
:1054A00081EA030423EA4C134EEAD47E21EA4C112C
:1054B00041F4801143F48013AE44A1FB024CA0FBE5
:1054C0000365AEF17F7E361955EB0C05A1FB034C4D
:1054D0004CF10003A0FB021C16EB0C06654153F1D6
:1054E0000003094218BF46F0010613F4007F0BD1F8
:1054F0004FEA03314FEA0530340341EA155140EADF
:1055000016506FF003020AE04FEAC3214FEAC520AC
:10551000F40241EA555140EA56506FF0020202EBA4
:105520002E4201EB025585EACE710AD05FEA440CA7
:1055300018BF24F0004450F1000041F1000120EABE
:10554000D47040F2FE7C624500D270BDA84214BF08
:105550004FF080444FF04044002E08BF0024BEF1BD
:10556000806FA8BFA1F1C041BDE8704080F2828089
:105570004FF0000001F1C04101F0004170479EEA88
:105580000C0F0CEA131518BF95EA0C0F06D04FF05C
:10559000000081EA030E0EF0004170BD00F01CF81F
:1055A0008900013E00F007B800F009B84FEA430C4B
:1055B0005FEA5C5C08D081EA030100F05BB84FEA67
:1055C000410C5FEA5C5CF6D14FF000000149704786
:1055D0000000FF070000F87F0EF1020E2EF0030E10
:1055E0005EF8046B364205D4012A43EB030515F53A
:1055F000001F12D8012841EB010C1CF5001F0CD82C
:105600000ED14FEAD17C15F5001F0CEB4C0C0CF1C0
:10561000020C08BF4CEBD37C04E04FF0080C01E017
:105620004FEAD37C0CEB4C0526FA05F606F007068C
:10563000B6F1040C06D20EEB860CBDE870404CF0BF
:10564000010C6047DFE80CF0090B02024FF000414B
:105650004FF00000A1F5002170BD19461046012849
:1056600051EB010418BFD4F5001484BF002001F0F1
:10567000004170BD0808A0F500114FEA31017047E4
:1056800053EA010C17D41CF5801F58BFBCF5801FCE
:1056900000F106808B4218BF704708BF82427047F6
:1056A00007D713F5801F58BF11F5801F19D48B42FF
:1056B00070479B4270471CF5801F08D5BCF5801FC2
:1056C000F7D5994218BF704708BF904270474FF412
:1056D000001C1CEB430F38BF1CEB410F01D2994259
:1056E00070470FB40CBC03BCFFF7C1BE91EA030FB7
:1056F00010B581F000413FF5F5AB83F0004300F0B9
:10570000EFB800002DE9F04101F5801CBCF5001F49
:10571000C0F2C3804FEA115C21EA0C510CF1FD0C80
:1057200041F480115FEA5C0C0CF5C07C01D34000B1
:1057300049413DA4890241EA905187028E0E0A0C2C
:10574000A45D04FB04F602FB06F6C6F14046A4FB8A
:105750000662F60D46EA422606FB06F4A4FB012388
:105760005242C3F1404338BF5B1EA6FB02420024F5
:10577000E6FB0324D20B42EA4446A6FB0623A1FB28
:1057800002E2A3FB07E4A4184FF0000252F100026A
:10579000E3FB01426442C2F1404E38BFAEF1010E5C
:1057A000A6FB04234FF00002E6FB0E32A2FB0346E9
:1057B0004FF00004B61954F10004E2FB0264A1FBAF
:1057C00006E6A4FB07E816EB08064FF0000858F1C0
:1057D0000008E4FB01687642C8F1405838BFA8F1E0
:1057E0000108A2FB06E4A3FB08E52D194FF0000415
:1057F00054F10004E2FB0854A1FB05E6A7FB04E812
:1058000018EB06084FF0000656F10006E1FB04868F
:1058100018F1200556F10006A809A8F11B08B109E6
:1058200008F03F08B8F10A0F40EA86601CD901EB86
:105830000C51BDE8F08100BFFCF5EEE8E2DDD8D305
:10584000CFCBC7C3C0BDB9B6B4B1AEACA9A7A5A3F1
:10585000A19F9D9B9A9896959392908F8D8C8B8902
:105860008887868584838281A0FB006800FB01F223
:1058700008EB4208B8EB872807D5341858EB010429
:10588000D5D5401C51F10001D1E7341A78EB010461
:10589000CDD4401E71F10001C9E75FEA4C0C5FEA0C
:1058A0009C5C0DD105D34FF0000001F00041BDE834
:1058B000F081BDE8F04170B5FFF78EFE6DDBFFBEF5
:1058C000BDE8F0414FF00000004970470000F87F4C
:1058D00010B591EA030F48BF83F000433FF502ABD8
:1058E000841A71EB030C07D212198CF0004C43EBB5
:1058F0000C03001B61EB0C01DFF8A4E14FEA11542B
:10590000A4EB135C1EEA430F18BF9EEA445F00F04D
:10591000B08023EA6E03524221EA0451C3EB6E03C6
:1059200038BF5B1EDCF1200E25D322FA0CFE10EBF3
:105930000E0043FA0CFE41EB0E01CCF1200E03FAEF
:105940000EFE10EB0E0051F10001CCF1200E29D417
:1059500012FA0EF201EB0451BDE8104058BF704737
:10596000401C1CBFB2F1004F704700280CBF491CFF
:1059700020F00100704712EB020E43EB030218BF48
:105980004FF0010E4EEA4202ACF1200CDCF11E0E8B
:1059900054D943FA0CFE10EB0E0051F1FF31CCF15B
:1059A0001E0ED5D50EF1010E12FA0EFE404141EB4E
:1059B000010101EB445C5FEA5C5C10D910EBDE7026
:1059C00001EB045138BFBEF1004FBDE8104018BFD5
:1059D000704700280CBF491C20F00100704730D2EE
:1059E0004FEAD42C11F5001124F400641BD0B1FA55
:1059F00081F20B3AA41AA41ED2F12003914030FA8E
:105A000003F31943904001EBCC71002C01EB0451DE
:105A1000BDE81040A8BF704701F1C0414FF0000041
:105A200001F000417047B0FA80F310FA03F100D1A1
:105A300010BDE41A173C4805C90AE4E701EB04511C
:105A400010BD491001EB0451BDE810404FEA300091
:105A500002E04FF0000170474A0008BF0042F8D052
:105A6000B2F5001F28BF704701F000414FF0000061
:105A700070479EEA445F07D011EA5E0FBDE8104010
:105A800004BF002100207047BDE8104070B5FFF74B
:105A9000A3FD00BF40DFF63E83F000411046704793
:105AA0000000E0FF0CF00F03092B08BF082000F0F6
:105AB00059800A2B0BD0082B18BF704708BF1CF069
:105AC000400F0AD04FF000004FF0000170471CF06B
:105AD000400F18BF4FF0004070471CF0100F08D067
