:020000040800F2
:1000000040080020411A0008ED0C0008EF0C000821
:10001000F30C0008F70C0008FB0C000800000000BF
:10002000000000000000000000000000FF0C0008BD
:10003000010D000800000000030D0008050D000878
:100040005B1A00085B1A00085B1A00085B1A0008BC
:100050005B1A00085B1A00085B1A00085B1A0008AC
:100060005B1A00085B1A00085B1A00085B1A00089C
:100070005B1A00085B1A00085B1A00085B1A00088C
:100080005B1A00085B1A00085B1A00085B1A00087C
:100090005B1A00085B1A00085B1A00085B1A00086C
:1000A0005B1A00085B1A00085B1A00085B1A00085C
:1000B0005B1A00088F1200085B1A00085B1A000820
:1000C0005B1A00085B1A00085B1A00085B1A00083C
:1000D0005B1A0008D3140008B71500085B1A000863
:1000E0005B1A00085B1A00085B1A00085B1A00081C
:1000F0005B1A00085B1A00085B1A00085B1A00080C
:100100005B1A00085B1A00085B1A00085B1A0008FB
:100110005B1A00085B1A00085B1A00085B1A0008EB
:100120005B1A00085B1A00085B1A00085B1A0008DB
:1001300000F002F800F03FF80AA090E8000C8244BA
:100140008344AAF10107DA4501D100F034F8AFF297
:10015000090EBAE80F0013F0010F18BFFB1A43F0A5
:1001600001031847B4360000D4360000103A24BF0B
:1001700078C878C1FAD8520724BF30C830C144BF0C
:1001800004680C607047000000230024002500264E
:10019000103A28BF78C1FBD8520728BF30C148BFEA
:1001A0000B607047642903F0A781002070471FB5DA
:1001B0001FBD10B510BD03F0F0FA1146FFF7F7FFB1
:1001C00000F083FA03F00EFB03B4FFF7F2FF03BC69
:1001D00001F020F908B5FE4840793038FC4909792A
:1001E000303901EB810100EB4100FA490860F84821
:1001F000C0783038F6498978303901EB810100EB5D
:100200004100F5490860F24840783038F0490978F3
:10021000303901EB810100EB41000830EF49086003
:10022000EF4840783038EE490978303901EB8101E8
:1002300000EB4100EB490860E948C0783038E849F4
:100240008978303901EB810100EB4100E649086013
:10025000E34840793038E2490979303901EB8101CE
:1002600000EB4100E1490860DC48006818284DD3E4
:10027000DA4800681821B0FBF1F201FB1200D749FF
:100280000860D8480068401CD6490860D748007804
:1002900000F00300D0B9D648D3490968405CD14981
:1002A0000968884212D80120CE490860CE4800680B
:1002B000401CCD490860084600680C2806D3012080
:1002C0000860CA480068401CC8490860C7480078F0
:1002D00000F00300D0B1C748C3490968405CC14978
:1002E0000968884212D80120BE490860BE480068EB
:1002F000401CBD490860084600680C2806D3012050
:100300000860BA480068401CB8490860B5480088D1
:1003100080B20090B448008883B2B448008882B2AA
:10032000B5A1BA4803F0ACF8AA48008880B20090A2
:10033000A948008883B2A948008882B2B4A1BA480B
:1003400003F09EF8B94800783038B9494143B748BE
:100350004078303843F60952504301EB8010B549DC
:100360000860B24880783038B1494143AF48C0781E
:100370003038504301EB8011AC480079303840F6FA
:100380003542504301EB4011A8484079303840F2E3
:100390007122504301EB0011A4488079303800EB02
:1003A0004002C2EBC01001EBC001A048C079303858
:1003B00000EBC00202EB001001EB80009E490860D8
:1003C000084600683C21B0FBF1F09B490860994861
:1003D000006809680844994908604E2098490870E7
:1003E0003A20487030208870944800689049B0FBEB
:1003F000F1F030309249C870904800689149B0FBE4
:10040000F1F00A21B0FBF1F201FB120030308C490F
:1004100008712E204871894800688B49B0FBF1F0C3
:100420000A21B0FBF1F201FB1200303084498871DF
:100430008248006842F21071B0FBF1F00A21B0FB73
:10044000F1F201FB120030307D49C8717B48006831
:100450004FF47A71B0FBF1F00A21B0FBF1F201FB2D
:100460001200303076490872744800686421B0FB8D
:10047000F1F00A21B0FBF1F201FB120030307049BB
:1004800048726E4800680A21B0FBF1F0B0FBF1F24F
:1004900001FB120030306A498872684800680A21FE
:1004A000B0FBF1F201FB120030306549C8725F48C1
:1004B000007A3038654941435C48407A3038644AB4
:1004C000504301EBC0115948807A303843F6095245
:1004D000504301EB8010574908605448C07A3038C7
:1004E000534941435148007B3038504301EB801160
:1004F0004E48407B303840F63542504301EB4011C6
:100500004A48807B303840F27122504301EB0011A1
:100510004648C07B303800EB4002C2EBC01001EB14
:10052000C0014248007C303800EBC00202EB0010F2
:1005300001EB800040490860084600683C21B0FBA0
:10054000F1F03D4908603B480068096808443B49B0
:10055000086045203F4908703A20487037480068D5
:100560003A49B0FBF1F030303A49887033480068BE
:100570002F49B0FBF1F00A21B0FBF1F201FB1200B0
:1005800030303449C8702D4800682E49B0FBF1F076
:100590000A21B0FBF1F201FB120030302D49087145
:1005A0002E204871254800682749B0FBF1F00A2148
:1005B000B0FBF1F201FB12003030264988711F4870
:1005C000006842F21071B0FBF1F00A2144E0000033
:1005D000D20000203000002034000020380000202D
:1005E000D80000203C0000204000002044000020F3
:1005F00048000020550000203230253032642D257F
:100600003032642D25303264202020008500002007
:10061000253032643A253032643A25303264202065
:10062000202020200000000095000020080100206C
:100630008096980004000020080000200C00002094
:100640001000002040420F00A086010000E1F505E7
:100650002D31010020000020B0FBF1F201FB12005F
:100660003030FE49C871FE4800684FF47A71B0FB23
:10067000F1F00A21B0FBF1F201FB12003030F74932
:100680000872F74800686421B0FBF1F00A21B0FB62
:10069000F1F201FB12003030F0494872F048006876
:1006A0000A21B0FBF1F0B0FBF1F201FB1200303097
:1006B000EA498872EA4800680A21B0FBF1F201FBBE
:1006C00012003030E549C87208BD00F039FE4FF421
:1006D000E13000F0AEFE4FF4165000F01BFF41F683
:1006E0001F4140F2F31000F0A5FD00F08DFD00F079
:1006F00013FE0020DB4908600120DB49C1F88001BE
:1007000000F0F2FB00F00BFDC82000F056FE0020C8
:10071000D44920390860D54A0021084600F055FD2B
:10072000CE4A0121002000F050FD3C2402E064206C
:1007300000F043FE2000A4F10101CCB2F7D10B225E
:10074000CBA1CE4801F04EF9072402E0642000F06E
:1007500034FE2000A4F10101CCB2F7D10F22C8A1D0
:10076000C64801F03FF9072402E0642000F025FEAE
:100770002000A4F10101CCB2F7D11422C4A1BF48DA
:1007800001F030F9002404E0642000F016FE601C43
:10079000C4B2052CF8DB0120B249086089E2C248E6
:1007A000006818B1C048001D006878BBBF480078D9
:1007B00058BB0A2000F001FEBB48006818B1BA48D7
:1007C000001D006808BBB848006868B90120B74937
:1007D0000870B748007818B90120B549087019E0C9
:1007E0000020B349087015E0AF48001D006860B9EB
:1007F0009C482038006808B9012000E00020994991
:10080000203908600120A949087003E0FFE70020B3
:10081000A6490870A7480078012820D10020A549E2
:100820000870A5480078012819D1FFF7D3FCA0482B
:10083000007850B98D4A0021084600F0C6FC874A6E
:100840000121002000F0C1FC09E09C4A002108467B
:1008500000F0BBFC9A4A0121002000F0B6FC92484F
:1008600008300068002864D10A2000F0A6FD8E48F8
:100870000830006800285CD17A4908600B227CA10E
:100880007E4801F0AFF8032402E0642000F095FDFB
:100890002000A4F10101CCB2F7D10F2278A1774852
:1008A00001F0A0F8032402E0642000F086FD20009F
:1008B000A4F10101CCB2F7D11A2282A16F4801F054
:1008C00091F8032402E0642000F077FD2000A4F1F9
:1008D0000101CCB2F7D17848007801280FD100206F
:1008E00075490870FFF776FC0C226049634801F0F7
:1008F00079F80C225949614801F074F804E00E229D
:1009000077A15E4801F06EF8C82000F056FD012284
:1009100077495A4801F066F81E2402E0642000F08E
:100920004CFD2000A4F10101CCB2F7D101204D49CA
:1009300008607048007801281ED100206D490870B9
:1009400001206D4908706D480068401C6B490860C3
:100950006B48007888B90846006804280DD30B223C
:1009600043A1464801F03EF800206449086064480D
:100970000078401C624908709BE1614800780128BA
:100980001AD15E480068042816D3002404E0302001
:100990005C490855601CC4B26E2CF8DB0B225AA1CE
:1009A000364801F01FF80020544908605448007888
:1009B000401C534908707CE15148007802284BD113
:1009C0004E480068042847D300205249087000248C
:1009D000D3E04C48005D47280CD14A49601C085CB4
:1009E000452807D1A01C085C542803D1012049499F
:1009F0000870C5E04348005D2B282ED14149601C9A
:100A0000085C382829D1A01C085C362825D1002094
:100A10001449086009203F4908703A48005D3E4982
:100A200048723849601C085C3B4988723549A01CF3
:100A3000085C3949C8723349E01C085C36490873C0
:100A40003049201D085C344948732E49601D085CFC
:100A5000314988732B4961E007E18CE020000020D8
:100A60000C000020A00121420000214210000020C3
:100A700041542B434D47463D310D0A00003801409B
:100A800041542B435343533D2247534D220D0A00FB
:100A900041542B434D4744413D2244454C20414C59
:100AA0004C220D0A0000000034012242A500002063
:100AB000A600002000000020CB00002085000020C0
:100AC0009500002041542B434D47533D222B38368F
:100AD0003138313035313430333537220D0A0000AA
:100AE000677073206C696E6B696E672E2E2E000026
:100AF00062000020F200002084000020640000203A
:100B0000630000206E01002041542B434D47523DAD
:100B1000310D0A008200002068000020A01D085C42
:100B20006449C8736449E01D085C624908746249FD
:100B300004F10800085C5F4948745F4904F109004A
:100B4000085C5C4988745C4904F10A00085C5949F6
:100B5000C874594904F10B00085C56490875564998
:100B600004F10C00085C53494875534904F10D0029
:100B7000085C50498875601CC4B26B2CFFF629AF25
:100B800000BF22204B49C8750D2008760A20487600
:100B90004A48007800285FD01422AFF20C11484870
:100BA00000F020FF002404E0642000F006FC601C3C
:100BB000C4B2052CF8DB0B22AFF24C11404800F018
:100BC00011FF002404E0642000F0F7FB601CC4B2B5
:100BD000032CF8DB0F22AFF25811394800F002FF66
:100BE000002404E0642000F0E8FB601CC4B2032C85
:100BF000F8DB1A222F49324800F0F4FE002404E00A
:100C0000642000F0DAFB601CC4B2022CF8DB2B4835
:100C1000007801280AD10C222A49294800F0E2FE76
:100C20000C222949264800F0DDFE04E0072227A116
:100C3000234800F0D7FE642000F0BFFB01222549C5
:100C40001F4800F0CFFE002404E0642000F0B5FB54
:100C5000601CC4B2142CF8DB00201F4908601F4838
:100C60000078401C1D49087023E01C4800780328C8
:100C70001FD11948006804281BD319480078401C6C
:100C800017490870084600780A2807DD0020087018
:100C90001422AFF204210A4800F0A4FE00200E49FD
:100CA00008600E49087001200E49086000200E49B6
:100CB000087074E5680000206E01002082000020AA
:100CC000003801401000002020000020434D445F08
:100CD00045525200620000206400002063000020A2
:100CE00083000020A001214284000020704700BF43
:100CF000FEE700BFFEE700BFFEE700BFFEE770476C
:100D000070477047704700000CB5002001900090BC
:100D10006C48006840F480306A49086000BF694848
:100D2000006800F4003000900198401C0190009889
:100D300018B90198B0F5A06FF1D16248006800F4CD
:100D4000003010B10120009001E0002000900098D8
:100D5000012843D15C48006840F010005A490860FF
:100D60000846006820F0030008600846006840F06C
:100D7000020008605348406852494860084640688D
:100D800048600846406840F4806048600846406813
:100D900020F47C1048600846406840F4E810486041
:100DA0000846006840F08070086000BF4548006851
:100DB00000F000700028F9D04248406820F003009D
:100DC000404948600846406840F00200486000BF63
:100DD0003C48406800F00C000828F9D10CBD10B563
:100DE000FFF792FF10BD10B53648006840F00100D3
:100DF0003449086008464068344908403149486031
:100E000008460068324908402E49086008460068D4
:100E100020F4802008600846406820F4FE00486006
:100E20004FF41F008860FFF7DAFF4FF00060294998
:100E3000086010BD10B5002100200022214B5B6826
:100E400003F00C0121B1042906D0082928D107E0BC
:100E5000214B224C236027E01F4B204C236023E0D2
:100E6000184B5B6803F47010164B5B6803F4803218
:100E7000022303EB904022B9194B4343174C2360E4
:100E80000DE0104B5B6803F4003323B1144B434374
:100E9000124C236003E0104B4343104C236003E0EB
:100EA0000D4B0E4C236000BF00BF064B5B68C3F3C5
:100EB00003130C4CE15C094B1B68CB40074C2360CF
:100EC00010BD000000100240002002400000FFF8AA
:100ED000FFFFF6FE08ED00E000127A00A8000020F7
:100EE00000093D00AC00002008B50121082001F0F8
:100EF000E3F84FF47F40ADF8000010208DF80300B8
:100F000003208DF802006946BE4800F019FE012159
:100F1000082001F0D1F88020ADF8000010208DF8F5
:100F2000030003208DF802006946B64800F008FE71
:100F30000121082001F0C0F84020ADF80000102089
:100F40008DF8030003208DF802006946AD4800F0DB
:100F5000F7FD0121082001F0AFF82020ADF80000D6
:100F600010208DF8030003208DF802006946A54883
:100F700000F0E6FD08BD38B500240121082001F08D
:100F80009BF84FF47F40ADF8000048208DF8030037
:100F900003208DF8020069469A4800F0D1FD202117
:100FA000984800F07CFE4021964800F076FE8021B3
:100FB000944800F072FE03E0052000F0DAF9641CAA
:100FC0004FF400418F4800F04EFE18B144F6206007
:100FD0008442F1D380218B4800F061FE012108207A
:100FE00001F06AF84FF47F40ADF8000010208DF852
:100FF000030003208DF802006946824800F0A0FD3E
:1010000038BD10B580217F4800F047FE052000F074
:10101000B0F980217B4800F042FE10BD10B50446B7
:101020004FF48071774800F03AFE4FF40071754834
:1010300000F035FE4FF48061724800F030FE4FF44E
:101040000061704800F02BFE4FF480516D4800F0B5
:1010500026FE4FF400516B4800F021FE4FF4804112
:10106000684800F01CFE4FF40041664800F017FE8F
:1010700004F0010020B14FF48071624800F00DFED1
:1010800004F0020020B14FF400715E4800F005FE4C
:1010900004F0040020B14FF480615A4800F0FDFDD7
:1010A00004F0080020B14FF40061564800F0F5FD4F
:1010B00004F0100020B14FF48051524800F0EDFDD3
:1010C00004F0200020B14FF400514E4800F0E5FD3F
:1010D00004F0400020B14FF480414A4800F0DDFDAB
:1010E00004F0800020B14FF40041464800F0D5FDE7
:1010F00010BD70B505460C460CB1FFF73CFF202132
:10110000404800F0CCFD40213E4800F0C8FD284694
:10111000FFF784FFFFF775FFFFF72DFF70BD10B5D8
:10112000FFF7E2FE40F2DC5000F023F90021382006
:10113000FFF7DFFF4FF4FA7000F01BF900213820B1
:10114000FFF7D7FF4FF4FA7000F013F900213820B1
:10115000FFF7CFFF01213820FFF7CBFF0121082047
:10116000FFF7C7FF01210846FFF7C3FF0121062053
:10117000FFF7BFFF01210C20FFF7BBFF10BD10B52B
:101180000446FFF7F8FE20211E4800F086FD4021AE
:101190001C4800F084FD2046FFF740FFFFF731FFB9
:1011A000FFF7E9FE10BD70B506460C461CB906F106
:1011B0008000C5B204E0012C02D106F1C000C5B226
:1011C00001212846FFF795FF70BD70B505460E4614
:1011D000144631462846FFF7E6FF03E02078FFF784
:1011E000CEFF641C20780028F8D170BD70B505468C
:1011F0000E46144631462846FFF7D5FF2046FFF736
:10120000BEFF70BD000C014008B50121042000F0B4
:1012100053FF40F20110ADF8000010208DF80300DC
:1012200003208DF802006946014800F089FC08BDE2
:10123000000801407FB505460C460121022000F060
:1012400048FFADF80850ADF804400020ADF80A00A2
:10125000ADF8060001A9294801F0D8FA012211468B
:10126000264801F04AFE1D208DF8000000208DF870
:10127000010003208DF8020001208DF8030068466C
:1012800001F087F901211D4801F01CFE7FBD10B55A
:1012900001211A4802F0DFF870B30121174802F06B
:1012A000EBF817480068401C15490860154800789D
:1012B000401C1449087008460078022806DB00200C
:1012C0000870114908700120104908700C48006826
:1012D0000521B0FBF1F201FB120068B901200C49B5
:1012E0000870074800683221B0FBF1F201FB1200E0
:1012F00010B901200749087010BD0000000400402B
:10130000BC000020F0000020F1000020F2000020CE
:1013100000000020C000002008B50121102000F0CE
:10132000CBFE4FF46040ADF8000048208DF803007C
:101330006946024800F004FC08BD000000080140B6
:1013400010B56FF0040001F06EF92E4800682E49C8
:10135000B0FBF1F02D4908700846007800EB400121
:10136000C1EBC0104FF6FF7101EAC00028490880A8
:1013700010BD0146254A12784A434FF0E0235A61D6
:1013800000229A611A46126942F001021A6100BFF6
:101390004FF0E022106900F001021AB100F480322F
:1013A000002AF5D04FF0E022126922F001024FF03E
:1013B000E0231A6100229A6170470146144A12889C
:1013C0004A434FF0E0235A6100229A611A4612699B
:1013D00042F001021A6100BF4FF0E022106900F0F4
:1013E00001021AB100F48032002AF5D04FF0E02259
:1013F000126922F001024FF0E0231A6100229A6183
:1014000070470000A800002000127A00C2000020EF
:10141000C4000020014600BF704700BFFE4A12888A
:1014200002F04002002AF9D0C2B2FB4B1B1D1A8009
:10143000704710B586B00446012144F2040000F064
:101440003BFEF54800F09CFE4FF40070ADF8140030
:1014500003208DF8160018208DF8170005A9EF4815
:1014600000F06EFB4FF48060ADF8140004208DF89E
:10147000170005A9E94800F063FB25208DF800005E
:1014800001208DF8010003208DF8020001208DF865
:101490000300684601F07DF801940020ADF80800D3
:1014A000ADF80A00ADF80C00ADF810000C20ADF856
:1014B0000E0001A9D84800F0A6FE012240F22551F5
:1014C000D54800F038FF0121D34800F028FF06B0CE
:1014D00010BD10B540F22551CF4801F011F8C0B150
:1014E000CD4800F08DFFC4B20020CD490870CD4832
:1014F0000078401CCB490870CB4809784454C9484F
:1015000000786D2805DB0020C64908700120C74916
:10151000087010BD10B586B004460121042000F00B
:10152000CBFD0121480400F0D4FDC14800F028FEA5
:101530000420ADF8140003208DF8160018208DF853
:10154000170005A9B54800F0FBFA0820ADF8140013
:1015500004208DF8170005A9B04800F0F1FA262004
:101560008DF8000002208DF8010003208DF80200A4
:1015700001208DF80300684601F00BF8019400206B
:10158000ADF80800ADF80A00ADF80C00ADF8100099
:101590000C20ADF80E0001A9A54800F034FE012290
:1015A00040F22551A24800F0C6FE0121A04800F0FB
:1015B000B6FE06B010BD10B540F225519C4800F0B3
:1015C0009FFF00287ED09A4800F01AFFC4B29948C5
:1015D000047000209849087098480078012806D0C7
:1015E00002281DD0032852D0042818D19CE091482D
:1015F0000078242813D101208F4908708D48007885
:10160000242806D102208D49087000208C490860EA
:1016100005E0012089490870002089490860DFE160
:101620008548007858BB01208349087081480078BC
:101630008449834A1268885481480068401C804964
:10164000086008460068052820D17E4800784728B1
:1016500016D17C484078502812D17A488078522898
:101660000ED17848C0784D280AD1764800794328B1
:1016700006D103207149087000207149086005E017
:1016800001206E49087000206D490860A8E16A4891
:101690000078002847D10120674908706848006831
:1016A000401C674908600846006801280CD90846B4
:1016B0000068082808D25F48017861480068801EE9
:1016C000614A00E08DE111545A4800782C280AD173
:1016D0005B480068072806D959480068102802D2DC
:1016E000CC205749086056480068CD281BD10020FF
:1016F0005349086002205549087000205449087079
:10170000544908704B480078412803D104204B49C4
:10171000087008E00020504908700120474908700F
:101720000020474908605BE143480078002871D1F8
:1017300001204149087042480068401C4049086047
:101740003C4800782C2807D140480078401C3F498D
:10175000087000203A4908603C48007803281CD1F2
:101760003748006850B136480068052806D231482D
:10177000017833480068401E384A115430480068E8
:1017800005280AD92E4800680A2806D22948017877
:101790002B480068801E314A11542C4800780428D8
:1017A00006D12748006818B1224800782C490870F3
:1017B0002648007805281CD12148006850B12048EF
:1017C0000068062806D21B480178244A1C48006895
:1017D000C01D11541A48006806280AD91848006824
:1017E0000B2806D2134801781C4A15480068801D52
:1017F000115416480078062806D11148006818B11F
:101800000C480078174908701048007807287DD1E7
:101810000F4829E0E3E000000038014000080140E3
:10182000F0000020F10000206E010020F2000020F6
:1018300000440040E2000020E3000020E10000201E
:10184000E400002019010020D2000020C800002080
:10185000C9000020CA000020CB00002008010020A1
:10186000CD000020CC0000200078D8B96A4800687C
:1018700058B16A4800782E2807D068480178664831
:101880000068401E664A115440E0644800782E28E3
:101890003CD161480068401E5F490860FF206149F3
:1018A000087033E05F480078FF282FD1FE205D49A3
:1018B00008705A48017858480068401E584A115428
:1018C00055480068401E1146085CC87052480068C0
:1018D000801E085C887050480068022805D94E4870
:1018E0000068C01E085C487002E030204C49487017
:1018F00049480068032806D947480068001F48493E
:10190000085C087002E030204549087046480078BD
:10191000082843D145480078D8B93F48006858B1F5
:101920003E4800782E2807D03C4801783A480068A5
:10193000401E3F4A115431E0384800782E282DD1FE
:1019400035480068401E34490860FF203749087058
:1019500024E036480078FF2820D1FE203349087063
:101960002D480068022808D12B480068801E3049A5
:10197000085C887030204870087027480068032889
:101980000CD125480068801E2949085C88702248CF
:101990000068C01E085C487030200870224800783B
:1019A00009280DD11C48006850B11B480068072861
:1019B00006D21A48017818480068401E1D4A115482
:1019C000164800780D280AD101201B490870002014
:1019D000114908601449087001201849087000BFB7
:1019E00000BF10BD2DE9F04107460C461546002604
:1019F0000DE000BF4021384600F06CFD0028F9D012
:101A00002178384600F0F8FC641C701C86B2AE42A7
:101A1000EFDBBDE8F0810000E4000020E2000020E0
:101A2000CE000020C9000020C8000020CA0000200D
:101A3000DE000020D8000020E1000020CB000020C4
:101A40000948804709480047FEE7FEE7FEE7FEE752
:101A5000FEE7FEE7FEE7FEE7FEE7FEE7044805498E
:101A6000054A064B70470000E70D000831010008E9
:101A700040020020400800204004002040040020D4
:101A800010B50446CC48844208D10121042000F05E
:101A90002DFB0021042000F029FB46E0C7488442CA
:101AA00008D10121082000F021FB0021082000F0CE
:101AB0001DFB3AE0C248844208D10121102000F009
:101AC00015FB0021102000F011FB2EE0BD488442E0
:101AD00008D10121202000F009FB0021202000F086
:101AE00005FB22E0B848844208D10121402000F0E3
:101AF000FDFA0021402000F0F9FA16E0B3488442D4
:101B000008D10121802000F0F1FA0021802000F0AE
:101B1000EDFA0AE0AE48844207D10121801500F0B9
:101B2000E5FA0021A01500F0E1FA10BD10B5012181
:101B3000084600F0DBFA0021012000F0D7FA10BDC2
:101B40002DE9F04102460025002600200023002454
:101B5000002791F803C00CF00F0591F803C00CF0BA
:101B6000100CBCF1000F03D091F802C04CEA05053F
:101B700091F800C0BCF1000F31D0146800202BE0B8
:101B80004FF0010C0CFA00F3B1F800C00CEA0306A8
:101B90009E4220D183004FF00F0C0CFA03F7BC4398
:101BA00005FA03FC4CEA040491F803C0BCF1280FC9
:101BB00006D14FF0010C0CFA00FCC2F814C00AE088
:101BC00091F803C0BCF1480F05D14FF0010C0CFA9D
:101BD00000FCC2F810C0401C0828D1D31460B1F832
:101BE00000C0BCF1FF0F34DD546800202EE000F18E
:101BF000080C4FF0010808FA0CF3B1F800C00CEA29
:101C000003069E4221D183004FF00F0C0CFA03F71C
:101C1000BC4305FA03FC4CEA040491F803C0BCF190
:101C2000280F05D100F1080C08FA0CF8C2F814804E
:101C300091F803C0BCF1480F07D100F1080C4FF038
:101C4000010808FA0CF8C2F81080401C0828CED30E
:101C50005460BDE8F0814FF6FF7101800221817070
:101C60000421C17070470246002093680B400BB1FD
:101C7000012000E0002070470146886880B270476C
:101C800002460020D3680B400BB1012000E0002089
:101C900070470146C86880B2704701617047416172
:101CA00070470AB1016100E041617047C16070474F
:101CB0004FF480320A438261816182618269826964
:101CC000704702460020434B18684FF68073184057
:101CD00040EA021008433F4B186070473E49C86114
:101CE0007047F0B50A46002300240021002500F0CB
:101CF0000046B6F1004F02D1364EF16901E0354E93
:101D00007168C0F3034583B200F44016B6F5401F76
:101D100008D121F070612F4E766826F070662D4F45
:101D20007E6012E000F48016B6F5801F06D103260F
:101D300006FA05F4A14341F0706106E0460D360154
:101D400003FA06F6B14341F0706122B1460D360147
:101D500003FA06F6314300F00046B6F1004F02D117
:101D60001C4EF16101E01B4E7160F0BD30B50022E8
:101D70008B071C0F0F2303FA04F2164B08338C1049
:101D800053F824309343134C08348D1044F8253015
:101D900023468C1053F824308C07240F00FA04F4E7
:101DA00023430C4C08348D1044F8253030BD0A49CB
:101DB000DC3108607047000000080140000C014061
:101DC000001001400014014000180140001C0140B7
:101DD000002001400000014000002042DF48006870
:101DE00040F00100DD49086008464068DC490840D1
:101DF000DA49486008460068DA490840D74908606F
:101E00000846006820F4802008600846406820F4F6
:101E1000FE0048604FF41F0088607047CF49096892
:101E200021F48031CD4A11601146096821F48021E6
:101E30001160B0F5803F03D0B0F5802F0ED106E0E1
:101E4000C649096841F48031C44A116007E0C349BA
:101E5000096841F4A021C14A116000E000BF00BF41
:101E6000704710B501460022002300204A11012AC4
:101E700002D1BA4C236806E0022A02D1B74C236A89
:101E800001E0B64C636A01F01F02012494401C403B
:101E90000CB1012000E0002010BD38B500200090FA
:101EA0000024002500BF3120FFF7DBFF0546009826
:101EB000401C00900098B0F5A06F01D0002DF2D02A
:101EC0003120FFF7CEFF08B1012400E000242046B6
:101ED00038BD01460020A14A106820F0F80040EA11
:101EE000C10010607047A04908607047024600209A
:101EF0009A4B586820F47C1042EA01031843974B30
:101F00005860704798490866704701460020934A18
:101F1000506820F003000843506070478F484068C5
:101F200000F00C007047014600208C4A506820F0F9
:101F3000F00008435060704701460020874A50680F
:101F400020F4E06008435060704701460020834A57
:101F5000506820F4605040EAC1005060704729B1D9
:101F60007E4A527A02437D4B5A7204E07B4A527A8F
:101F700082437A4B5A7270477B49D8310860704768
:101F800001460020754A506820F4404008435060E4
:101F900070470021714A20321170704A82F8201077
:101FA000012802D004280AD104E001216B4A203222
:101FB000117005E00521694A2032117000E000BF70
:101FC00000BF70476949086070476449096A014366
:101FD000624A11627047654944390860704730B5FC
:101FE00000210022002400235C4D6D6805F00C01E7
:101FF00021B1042905D0082923D105E05C4D0560F5
:1020000022E05B4D05601FE0544D6D6805F47012D1
:10201000524D6D6805F48034022505EB92421CB9DF
:10202000544D554305600BE04C4D6D6805F400358B
:102030001DB1504D5543056002E04D4D55430560BF
:1020400002E04B4D056000BF00BF444D6D6805F0D8
:10205000F0010909484D6B5C0568DD4045603F4D66
:102060006D6805F4E061090A434D6B5C4568DD402D
:1020700085603A4D6D6805F46051C90A3E4D6B5C50
:102080004568DD40C560354D6D6805F44041890BFC
:102090003A4D6B5CC568B5FBF3F5056130BD29B100
:1020A0002E4A526902432D4B5A6104E02B4A526971
:1020B00082432A4B5A61704729B1284A92690243E8
:1020C000264B9A6104E0254A92698243234B9A6128
:1020D000704729B1214AD2690243204BDA6104E0FA
:1020E0001E4AD26982431D4BDA61704729B11B4AEF
:1020F000D2680243194BDA6004E0184AD26882437E
:10210000164BDA60704729B1144A12690243134B27
:102110001A6104E0114A12698243104B1A61704738
:1021200012494039086070470F49C86470470B492D
:10213000C87170470948406A40F08070074948629A
:10214000704701460020054A92680A400AB1012002
:1021500000E000207047014988727047001002407B
:102160000000FFF8FFFFF6FE0000424280044242FA
:1021700000127A0000093D00F30000200301002056
:1021800010B50446FB48844209D101218803FFF7BA
:10219000ADFF00214FF48040FFF7A8FF32E0F64882
:1021A000844209D101214804FFF7ADFF00214FF41B
:1021B0000030FFF7A8FF25E0F048844209D1012153
:1021C0008804FFF7A0FF00214FF48020FFF79BFF5A
:1021D00018E0EB48844209D10121C804FFF793FFBE
:1021E00000214FF40020FFF78EFF0BE0E54884420A
:1021F00008D101210805FFF786FF00214FF4801068
:10220000FFF781FF10BD2DE9F04786B005460E4669
:102210000024A24600BFA1460027B08900B100BF3C
:102220002F462C8A4CF6FF700440F08804432C8221
:10223000AC894EF6F3100440B088318908437189A7
:1022400008430443AC81AC8A4FF6FF400440B08998
:102250000443AC8201A8FFF7C2FEC648874202D100
:10226000DDF810A001E0DDF80CA0A88900F4004022
:1022700040B10AEBCA0000EB0A1031684900B0FB1C
:10228000F1F807E00AEBCA0000EB0A103168890098
:10229000B0FBF1F86420B8FBF0F0040120096421E0
:1022A00001FB1089A88900F4004040B1322000EB06
:1022B000C900B0FBF1F000F00700044308E0322051
:1022C00000EB09106421B0FBF1F000F00F000443B3
:1022D0002C8106B0BDE8F0874FF416510160002153
:1022E0008180C18001810C21418100218181704761
:1022F00010B502460020108A4FF2FF0318400B88E9
:102300004C8823438C882343CC8823431843108272
:1023100010BD0021018041808180C180704721B1C2
:10232000828942F40052828104E082894DF6FF7373
:102330001A4082817047F0B503460024002600252C
:10234000002040F66A17B94200D100BF1846C1F319
:10235000421401F01F06012707FA06F5012C01D1EE
:102360000C3004E0022C01D1103000E014301AB11E
:1023700007682F43076002E00768AF430760F0BDBE
:102380001AB1838A0B43838202E0838A8B43838260
:102390007047028A4FF6F0731A400282028A0A439B
:1023A0000282704782894FF2FF731A4082818289CC
:1023B0000A438281704721B1828942F00202828100
:1023C00004E082894FF6FD731A4082817047028AC9
:1023D0004FF6DF731A400282028A0A430282704774
:1023E00021B1028A42F48042028204E0028A4BF662
:1023F000FF731A4002827047C1F30802828070475F
:1024000001468888C0F308007047818941F00101C6
:1024100081817047028BD2B20283028B42EA012291
:1024200002837047028B02F47F420283028B0A43CD
:102430000283704721B1828A42F02002828204E046
:10244000828A4FF6DF731A408282704721B1828AF6
:1024500042F01002828204E0828A4FF6EF731A4043
:102460008282704721B1828A42F00802828204E0AF
:10247000828A4FF6F7731A408282704721B18289AF
:1024800042F40042828103E08289C2F30E0282811B
:10249000704721B1828A42F40062828204E0828A1B
:1024A0004FF2FF731A4082827047828A4FF6FB73A5
:1024B0001A408282828A0A438282704721B1828ACC
:1024C00042F00202828204E0828A4FF6FD731A40D3
:1024D0008282704702460020B1F5007F00D100BF24
:1024E00013880B400BB1012000E00020704701F47D
:1024F0000072B2F5007F00D100BFCA43028070476E
:1025000070B50246002400230025002040F66A161C
:10251000B14200D100BFC1F3421501F01F030126F3
:1025200006FA03F3012D02D19689334006E0022D0D
:1025300002D1168A334001E0968A33400C120126FC
:1025400006FA04F41688344013B10CB1012000E0FF
:10255000002070BD10B50022002340F66A14A1428D
:1025600000D100BF0A1201249440A3B2DC430480CE
:1025700010BD000000380140004400400048004009
:10258000004C00400050004031490143314A116085
:10259000704770B5002100230F22C47804B32D4C7E
:1025A000246804F4E064C4F5E064210AC1F1040382
:1025B000CA40447804FA03F18478144021430901A5
:1025C000254C0678A155047804F01F050124AC4081
:1025D00005786D11AD0005F1E025C5F8004109E071
:1025E000047804F01F050124AC401C4D06787611D8
:1025F00045F8264070BD1A4A0A400243154B1B1F7E
:102600001A60704739B1134A121D12680243114B08
:102610001B1D1A6006E00F4A121D126882430D4B03
:102620001B1D1A607047042808D14FF0E02109698A
:1026300041F004014FF0E022116107E04FF0E0218A
:10264000096921F004014FF0E02211617047000098
:102650000000FA050CED00E000E400E080E100E09D
:1026600080FFFF1F10B50446FE48844208D10121B7
:10267000C014FFF73BFD0021E014FFF737FDC4E075
:10268000B4F1804F08D101210846FFF73CFD00213D
:102690000120FFF738FDB8E0F348844208D101215A
:1026A0000220FFF730FD00210220FFF72CFDACE0F7
:1026B000EE48844208D101210420FFF724FD0021C7
:1026C0000420FFF720FDA0E0E948844208D1012161
:1026D0000820FFF718FD00210820FFF714FD94E003
:1026E000E448844208D101211020FFF70CFD0021AD
:1026F0001020FFF708FD88E0DF48844208D101215F
:102700002020FFF700FD00212020FFF7FCFC7CE0EB
:10271000DA48844208D101214014FFF7E7FC002188
:102720006014FFF7E3FC70E0D548844209D1012131
:10273000C804FFF7DBFC00214FF40020FFF7D6FCB4
:1027400063E0D048844209D101210805FFF7CEFC9F
:1027500000214FF48010FFF7C9FC56E0CA488442BC
:1027600009D101214805FFF7C1FC00214FF40010F9
:10277000FFF7BCFC49E0C548844208D10121402054
:10278000FFF7C1FC00214020FFF7BDFC3DE0C04841
:10279000844208D101218020FFF7B5FC0021802070
:1027A000FFF7B1FC31E0BB48844208D1012180151C
:1027B000FFF7A9FC0021A015FFF7A5FC25E0B6480E
:1027C000844209D101210804FFF790FC00214FF455
:1027D0008030FFF78BFC18E0B048844209D101211A
:1027E0004804FFF783FC00214FF40030FFF77EFC24
:1027F0000BE0AB48844208D101218804FFF776FC46
:1028000000214FF48020FFF771FC10BD00220288E8
:10281000944B98420ED0994B98420BD0B0F1804F18
:1028200008D0914B984205D0904B984202D0904BE3
:10283000984204D14FF68F731A404B881A438D4B40
:10284000984207D08C4B984204D04FF6FF431A4071
:10285000CB881A4302808B8883850B880385814B44
:1028600098420BD0854B984208D08B4B984205D0AC
:102870008A4B984202D08A4B984201D10B7A038648
:1028800001238382704770B5002400220023058C49
:102890004FF6FE7635400584028C8388048B4FF614
:1028A0008F752C40B51E2C400D882C43751E2A4078
:1028B0000D892A434D882A436A4DA8420BD06F4D9B
:1028C000A84208D0744DA84205D0744DA84202D049
:1028D000734DA84213D14FF6F7752A404D892A430C
:1028E0004FF6FB752A408D882A434FF6FF652B4033
:1028F0004FF6FF552B408D892B43CD892B43838089
:102900000483CD888586028470BD70B500240022C2
:102910000023058C4FF6EF7635400584028C8388C2
:10292000048B48F6FF752C404FF6FF452C400D8870
:102930004FF6FF7606EA05252C434FF6DF752A4051
:102940000D8906EA05152A434D8806EA05152A432E
:10295000444DA84202D0494DA8421DD14FF67F7583
:102960002A404D894FF6FF7606EA05152A434FF6B1
:10297000BF752A408D8806EA05152A434FF6FF35B4
:102980002B404FF2FF752B408D8906EA85052B43BE
:10299000CD8906EA85052B4383800483CD8805878E
:1029A000028470BD70B5002400220023058C4FF610
:1029B000FF6635400584028C8388848B4FF68F75C3
:1029C0002C404FF6FC752C400D882C434FF6FF55DC
:1029D0002A400D894FF6FF7606EA05252A434D88E1
:1029E00006EA05252A431F4DA84202D0234DA842DE
:1029F0001DD14FF2FF752A404D894FF6FF7606EA4A
:102A000005252A434FF6FF352A408D8806EA05251D
:102A10002A434EF6FF752B404DF6FF752B408D89EE
:102A200006EA05152B43CD8906EA05152B4383805D
:102A30008483CD888587028470BD70B50022002311
:102A40000024058C4EF6FF7635400584038C84887F
:102A5000828B48F6FF752A404FF6FF452A400D88C5
:102A600020E00000002C014000040040000800406D
:102A7000000C0040001000400014004000340140F1
:102A8000004C01400050014000540140001800403B
:102A9000001C004000200040004001400044014074
:102AA000004801404FF6FF7606EA05252A434DF619
:102AB000FF752B400D8906EA05352B434D8806EA44
:102AC00005352B43FA4DA84202D0FA4DA84208D151
:102AD0004BF6FF752C408D894FF6FF7606EA85157B
:102AE0002C4384808283CD88A0F84050038470BD3D
:102AF000828B4FF2FF331A408283828B4FF6FF7333
:102B000003EA01231A4382837047F0B50C46154649
:102B1000002200210026078C4EF6FF7C07EA0C07F6
:102B20000784828B018C4FF6FF7707EA043640F664
:102B3000FF473A404FF6FF7707EA05273A434FF63B
:102B4000FF7707EA03373A43D94FB8420ED0D94F3F
:102B5000B8420BD0B0F1804F08D0D74FB84205D063
:102B6000D64FB84202D0D64FB84206D14DF6FF77C5
:102B7000394046F48057394305E047F6FF5739405E
:102B800044F48057394382830184F0BD828B4FF631
:102B9000F3731A408283828B0A4382837047F0B5B5
:102BA0000C461546002200210026078C4FF6FF6CCC
:102BB00007EA0C070784828B018C4FF6FF7707EA40
:102BC00004264FF60C773A404FF6FF7707EA0317D3
:102BD0002F433A43B64FB8420ED0B64FB8420BD04F
:102BE000B0F1804F08D0B44FB84205D0B34FB842CF
:102BF00002D0B34FB84206D14FF6FF57394046F4E2
:102C00008077394305E04FF2FF57394044F480772D
:102C1000394382830184F0BD028B4FF2FF331A40A7
:102C20000283028B4FF6FF7303EA01231A430283E8
:102C30007047F0B50C461546002200210026078C8F
:102C40004FF6EF7C07EA0C070784028B018C4FF6E6
:102C5000FF7707EA041640F6FF473A404FF6FF7742
:102C600007EA03373A434FF6FF7707EA05273A4367
:102C70008F4FB8420ED08F4FB8420BD0B0F1804F7B
:102C800008D08D4FB84205D08C4FB84202D08C4F3F
:102C9000B84206D14FF6DF77394046F01007394386
:102CA00005E04FF65F77394044F01007394302835F
:102CB0000184F0BD028B4FF6F3731A400283028B3E
:102CC0000A4302837047F0B50C46154600220021E6
:102CD000068C4FF6FE773E400684028B018C4FF641
:102CE0000C7632407E1C06EA03162E433243704EA9
:102CF000B0420ED06F4EB0420BD0B0F1804F08D032
:102D00006D4EB04205D06D4EB04202D06C4EB04216
:102D100006D14FF6FD76314044F00106314305E01F
:102D20004FF6F576314044F00106314302830184C9
:102D3000F0BD70B505460C465D4885420ED05D4835
:102D400085420BD0B5F1804F08D05B48854205D055
:102D50005A48854202D05A48854200D100E000BF5F
:102D6000208850B92389A28861882846FFF7ABFFE5
:102D7000E1882846FFF79EFF25E0208804280AD135
:102D80002389A28861882846FFF753FFE1882846F7
:102D9000FFF742FF17E0208808280AD12389A2887C
:102DA00061882846FFF7FBFEE1882846FFF7EEFE24
:102DB00009E02389A28861882846FFF7A6FEE188FA
:102DC0002846FFF795FE70BD2DE9F04105460C46FB
:102DD00000260127608808B9022600E00026A088A6
:102DE000012801D1022700E001272088A0B923890A
:102DF000A28861882846FFF766FFE1882846FFF72A
:102E000059FF23893A4631462846FFF712FFE188E9
:102E10002846FFF701FF13E02389A288618828462E
:102E2000FFF707FFE1882846FFF7F6FE23893A46B9
:102E300031462846FFF747FFE1882846FFF73AFF6B
:102E4000BDE8F0810A884B881A438B881A43CB88E7
:102E50001A430B891A434B891A438B891A43A0F8EA
:102E6000442070474FF6FF71818000210180C180AE
:102E70004180017270470021018041808180C180C2
:102E8000018141818181C1817047002101804180A0
:102E9000012181800021C1800181704700210180D2
:102EA00041808180C1800181418181817047000022
:102EB000002C0140003401400004004000080040A4
:102EC000000C004021B1028842F00102028004E0BF
:102ED00002884FF6FE731A400280704731B1B0F895
:102EE000442042F40042A0F8442005E0B0F8442019
:102EF000C2F30E02A0F8442070471AB183890B4335
:102F0000838102E083898B4383817047818270478C
:102F100041EA0203A0F8483070471AB183890B4395
:102F2000838102E083898B438381704701894FF657
:102F3000F8721140018170470A46002101894FF65D
:102F40008F73194011430181704730B504460D4617
:102F500029462046FFF7F0FF208940F00700208136
:102F600030BD2DE9F04104460D4616461F46602D42
:102F700006D13B46012231462046FFF75AFE05E0C6
:102F80003B46012231462046FFF79DFE294620465A
:102F9000FFF7D2FF208940F007002081BDE8F081D3
:102FA00030B50C4600210189C9B24FF6FF7505EA1C
:102FB0000325154325432943018130BD2DE9F04107
:102FC00005460E4617469846002443463A46314683
:102FD0002846FFF7E5FF2C894FF6F870044044F0CF
:102FE00007044FF68F70044044F070042C81BDE854
:102FF000F081F0B504460D4616461F463B46324664
:1030000029462046FFF7CCFF208940F480402081EC
:10301000F0BD0185828270470A46002101884FF683
:103020008F731940114301807047F0B50C46154667
:103030001E460021002200230189028B038C4FF6DB
:10304000F877394021434FF6FC473A4040F20117E8
:103050003A434FF6DD773B404FF6FF7707EA061716
:103060002F433B43018102830384F0BD0A460021C4
:10307000018B4FF68F7319401143018370470A4645
:103080000021018B48F6FF7319404FF6FF7303EAE6
:1030900002231943018370470A460021818B4FF6B2
:1030A0008F7319401143818370470A460021818B39
:1030B00048F6FF7319404FF6FF7303EA02231943E2
:1030C0008183704721B1028842F08002028004E0CF
:1030D00002884FF67F731A400280704721B18288C0
:1030E00042F00402828004E082884FF6FB731A40AB
:1030F0008280704721B1828842F00802828004E019
:1031000082884FF6F7731A408280704721B1828817
:1031100042F00102828004E082884FF6FE731A407A
:10312000828070470A460021018B4FF6F7731940E1
:103130001143018370470A460021018B4FF2FF7350
:1031400019404FF6FF7303EA0223194301837047C6
:103150000A460021818B4FF6F77319401143818392
:1031600070470A460021818B4FF2FF7319404FF6DA
:10317000FF7303EA02231943818370470A46002143
:10318000018B4FF6FB7319401143018370470A46C8
:103190000021018B4FF6FF3319404FF6FF7303EA0E
:1031A00002231943018370470A460021818B4FF6A1
:1031B000FB7319401143818370470A460021818BBC
:1031C0004FF6FF3319404FF6FF7303EA022319430A
:1031D000818370470A460021018B4FF67F731940A7
:1031E0001143018370470A460021018BC1F30E0190
:1031F0004FF6FF7303EA02231943018370470A461F
:103200000021818B4FF67F731940114381837047F2
:103210000A460021818BC1F30E014FF6FF7303EACA
:1032200002231943818370470A460021018C4FF61F
:10323000FD7319401143018470470A460021018C37
:103240004FF6F77319401143018470470A46002175
:10325000018C4FF6DF7319404FF6FF7303EA021338
:103260001943018470470A460021018C4FF67F7391
:1032700019404FF6FF7303EA0213194301847047A4
:103280000A460021018C4FF6FF5319404FF6FF7399
:1032900003EA02231943018470470A460021018C86
:1032A0004FF2FF7319404FF6FF7303EA02231943ED
:1032B000018470470A460021018C4DF6FF731940C6
:1032C0004FF6FF7303EA023319430184704730B5A8
:1032D000002301248C40A3B2048C9C430484048CFE
:1032E00002FA01F5ADB22C43048430BD30B50023A1
:1032F00004248C40A3B2048C9C430484048C02FA02
:1033000001F5ADB22C43048430BD70B503460020F6
:1033100000241846183001258D40ACB21D8CA54301
:103320001D8409B1082909D100EB6100056825F069
:10333000700505600568154305600EE00D1FC5F3B7
:103340004E052844056825F4E045056005684FF6FC
:10335000FF7606EA02263543056070BD21B102887A
:1033600042F00202028004E002884FF6FD731A4028
:103370000280704721B1028842F00402028004E01A
:1033800002884FF6FB731A400280704721B1828891
:1033900042F08002828004E082884FF67F731A40F8
:1033A0008280704702884FF6F7731A4002800288C5
:1033B0000A430280704782884FF68F731A408280DA
:1033C00082880A438280704702894FF6F8731A4058
:1033D000028102890A430281704702894FF67F7396
:1033E0001A40028102890A43028170478184704732
:1033F0008185704781867047018770478187704754
:10340000A0F84010704702884FF6FF431A40028030
:1034100002880A43028070470146888E7047014641
:10342000088F70470146888F70470146B1F8400009
:1034300070470146888C70470146088D70470246E8
:103440000020138A0B400BB1012000E000207047E0
:10345000CA430282704730B5024600200023002490
:10346000158A05EA0103958905EA010413B10CB137
:10347000012000E0002030BDCA430282704770473F
:103480000FB41CB5074B06AA7B446946009005980B
:1034900000F06BF90020694600F07AF91CBC5DF879
:1034A00014FB00000503000070B504468569006840
:1034B000C10601D5302600E02026C00707D070BD28
:1034C000D4E9012130469047206A401C20626D1EDD
:1034D000F6D570BD70B5044685690078C00707D180
:1034E00070BDD4E9012120209047206A401C206251
:1034F0006D1EF6D570BD00002DE9F0410646002492
:1035000010687529314615A510D0AFF3008000284A
:1035100002DA404212A507E031688A0701D511A5F9
:1035200002E0490704D510A5012401E0AFF30080B3
:1035300000210A2306F1240707E0B0FBF3F203FBA6
:103540001200303078541046491C0028F5D123462B
:103550002A463046BDE8F04100F0A8B8000000005F
:103560002D0000002B000000200000002DE9F05F7E
:10357000894604464FF0000ADFF824B1FB44C0F846
:1035800020A02046E168884700287DD0252806D065
:10359000D4E901219047206A401C2062F1E7002510
:1035A0005F462046E16888472028064607DB312E23
:1035B00005D2B81910F8200C08B10543F1E7A807A7
:1035C00001D525F00405C4F81CA00027C4F818A0F4
:1035D0002A2E09D0304600F00FF938B304EB8708E3
:1035E000303EC8F8186019E059F8041B204604EB77
:1035F00087029161E1688847012F064618D1E0698A
:10360000002820DA25F020051DE0D8F8180000EB8E
:10361000800006EB40003038C8F818002046E1680A
:103620008847064600F0E8F80028EED1012F0AD0BE
:103630002E2E08D12046E16888477F1C0646022FBF
:1036400045F02005C4DBA069002803DA404245F0BC
:103650000105A061E80701D025F01005A6B1A6F18B
:103660004100192802D8203645F400654A46314603
:10367000204625604D46FCF795FD60B1012807D036
:10368000ED1D25F0070000E007E000F1080978E7EC
:1036900005F1040975E730467AE7206ABDE8F09F36
:1036A0008602000070477047704770472DE9F04769
:1036B0000D4699469246044600F1240801688806A2
:1036C00004D5E06921F01001216000E00120A8424A
:1036D00001DD471B00E00027A1697A1902EB090010
:1036E000081AA0612078C00602D42046FFF7DCFE4D
:1036F000002608E0D4E901211AF806009047206A64
:10370000401C761C20624E45F4DB2078C0060AD5AA
:103710002046FFF7C9FE06E0D4E90121302090479A
:10372000206A401C2062381EA7F10107F4DC07E084
:10373000D4E9012118F805009047206A401C206256
:10374000281EA5F10105F3DC2046FFF7C3FE207813
:10375000000602D50220BDE8F0870120FBE700004B
:1037600001694A1C02610878704700B58FB0CDE945
:1037700001310021059105497944CDE90310114635
:103780006846FFF7F3FE0FB000BD0000E5FFFFFF46
:103790000A6802F8010B0A607047754600F028F8C5
:1037A000AE4605006946534620F00700854618B02E
:1037B00020B5FEF753F9BDE820404FF000064FF06A
:1037C00000074FF000084FF0000B21F00701AC4656
:1037D000ACE8C009ACE8C009ACE8C009ACE8C00975
:1037E0008D4670470446AFF300802046FCF7ECFCA2
:1037F00000487047DC01002030380A2801D201203F
:10380000704700207047040000080000000000001E
:1038100000020001000010003838000800000020FD
:10382000080100006C010008403900080801002070
:1038300038070000880100080000000000000000B8
:1038400000000000000000004E3A3030302E3030D2
:103850003030303000000000453A3030302E30300B
:103860003030303000000000000000000000000098
:103870000000000000000000000000000000000048
:10388000001F1D1F1E1F1E1F1F1E1F1E1F001F1C8F
:103890001F1E1F1E1F1F1E1F1E1F1A0000000000DC
:1038A00041542B434D47533D2200000000000000CF
:1038B0000000000000000000000000000032303076
:1038C000302D30302D303020202000000030303AB4
:1038D00030303A303020202020200000000000004E
:1038E00000A24A04000000000000000001020304DE
:1038F00006070809000000000000000000000000AA
:1039000000000000000000000000000000000000B7
:1039100000000000000000000001000000000000A6
:103920000000000000000000000000000000000196
:103930000203040102030406070809020406080042
:0400000508000131BD
:00000001FF
